S01000006E6F6D696E616C322E73726563F4
S1130000DAC30000F7C30000F5C30000F3C3000027
S1130010F1C30000EFC30000EDC30000EBC3000018
S1130020E9C30000E7C30000E5C30000E3C3000028
S1130030E1C30000DFC30000DDC30000DBC3000038
S1130040D9C30000D7C300000C943711D3C30000F8
S1130050D1C30000CFC30000CDC30000CBC3000058
S1130060C9C30000C7C30000C5C30000C3C3000068
S1130070C1C30000BFC30000BDC30000BBC3000078
S1130080B9C30000B7C30000B5C30000036EDB367C
S11300903D9A9999993DABAAAA2A3E000000803F57
S11300A0084AD73B3BCE016E84BCBFFDC12F3D6CDB
S11300B074319ABD56833DDA3D00C77F11BED9E441
S11300C0BB4C3E916BAAAABE000000803F072C7A6D
S11300D0A5BA6CC590DA3B9365FC8BBC53F810FD54
S11300E03C5692834DBD879D3AB63DCBC9BF5BBE9E
S11300F073DA0FC93F05A84CCDB2D44EB93836A92E
S1130100020C50B9918688083CA6AAAA2ABE00000F
S113011000803F07634236B79BD8A71A3968561840
S1130120AEBAAB558C1D3CB7CC5763BD6DEDFD75B8
S11301303EF6177231BF000000803F08000000BE89
S1130140922449123EABAAAA2ABECDCCCC4C3E0086
S1130150000080BEABAAAAAA3E00000000BF0000B7
S113016000803F0000000000084178D3BB4387D1E2
S1130170133D190E3CC3BD4282AD2B3E68EC827622
S1130180BED98FE1A93E4C80EFFFBE01C4FF7F3F83
S113019000000000000000000000CDCC2441CDCCC4
S11301A09041CDCCD4C133330BC1333353C033333B
S11301B0DBC1666606409A9961C19A99594000006C
S11301C0B0C033330341333333BFCDCCCCBE9A9963
S11301D021C16666E63F333333BFCDCC4C3E666601
S11301E0A6BF9A9911C19A99A940333383409A9929
S11301F039409A9989C06666A6C0CDCC4CBE000031
S1130200003F9A99193F6666A6BF9A99D93FCDCC0B
S1130210CCBD9A9999BF3333B33F9A9959409A996F
S11302207940000000009A9999BECDCCCCBD000065
S11302300000333333BF666606C066660640333358
S113024033BF9A9999BFCDCC4C3E9A99993E666634
S1130250663FCDCCCC3F0000803F9A99993ECDCCEF
S11302604CBECDCC4C3F000000BFCDCCCC3E66662E
S1130270A63FCDCC4CBECDCCCC3D9A9999BE9A9993
S113028019BF9A9919BFCDCC4CBFCDCCCC3DCDCCA8
S11302904C3ECDCC4CBECDCC4C3E000000009A99D7
S11302A099BE9A9919BF9A99993E0000003FCDCC06
S11302B0CC3DCDCC4CBE0000003FCDCCCC3ECDCC13
S11302C04CBECDCCCC3D9A9999BECDCCCCBE9A999E
S11302D0993E9A99993E0000000000000000000039
S11302E0000000000000000000000000000000000A
S11302F000000000000000000000000000000000FA
S113030000000000000000000000000000000000E9
S113031000000000000000000000000000000000D9
S113032000000000000000000000000000000000C9
S113033000000000000000000000000000000000B9
S113034000000000000000000000000000000000A9
S11303500000000000000000000000000000000099
S11303600000000000000000000000000000000089
S11303700000000000000000000000000000000079
S11303800000000000000000000000000000000069
S11303900000000000000000000000000000000059
S11303A00000000000000000000000000000000049
S11303B00000000000000000000000000000000039
S11303C00000000000000000000000000000000029
S11303D00000000000000000000000000000000019
S11303E00000000000000000000000000000000009
S11303F000000000000000000000000000000000F9
S113040000000000000000000000000000000000E8
S113041000000000000000000000000000000000D8
S113042000000000000000000000000000000000C8
S113043000000000000000000000000000000000B8
S113044000000000000000000000000000000000A8
S11304500000000000000000000000000000000098
S11304600000000000000000000000000000000088
S11304700000000000000000000000000000000078
S11304800000000000000000000000000000000068
S11304900000000000000000000000000000000058
S11304A0000000000000000000000004E6C600A0F8
S11304B0BBC4CDE895459AD118C5664E3C459AD93A
S11304C031C56696D1449A7920C466D6A844CD0431
S11304D013C59A99E6C23333994466E6744300809F
S11304E011449A9906C466E66244CD6C4B4466A6F0
S11304F08D43CDCCF04233B33CC33373A7C366E61C
S11305003443CDCC8C4200C0A4C39A9968C3CD0CAB
S1130510B44333333D42666640430000454366E6D8
S11305200CC39A99EEC200801DC30000804133338E
S113053083406666C84200008C42666687426666EF
S1130540A6C166669142CDCC044266E601C39A997F
S11305506B423333E7C1666685C2333353419A999C
S1130560E940CDCC8DC266667A423333A34233333D
S113057098C2666658C29A99D9C000009CC13333A8
S11305804F426666B640000070413333C34166662D
S113059016419A995940333333C03333DBC19A99A6
S11305A0D940CDCC0CC09A99C141CDCC0C419A997B
S11305B02141333387C1666692C1CDCC4CC0CDCCCA
S11305C05441CDCCA4C19A9969C1666656419A99A1
S11305D0814133333B416666B64066667EC19A9973
S11305E011C1000000C066660640CDCCAC40CDCC45
S11305F00C41CDCCACC166664640CDCC2C413333E6
S113060053C0CDCC3C413333333F9A99D9C0CDCC80
S113061054C1CDCCDCC0CDCCCCBD9A99F940333398
S11306200B410000803F9A9911C1000080C0000076
S113063028C1666606413333F3BF9A99C9C0CDCC4D
S11306404C40CDCCCC3DCDCCCCBE0000003F3333B0
S11306509340000000BFCDCC8C406666E63FCDCC15
S1130660FCC0333333BF9A9919BF66660640666689
S113067086C09A991940333333C06666E6BF9A99A7
S113068099BF666666C033330BC166664640000098
S1130690C0BFCDCCCCBD333313C00000004000003C
S11306A00040333333BFCDCC4CBFCDCC8CBF9A99F3
S11306B0193FCDCC4C3F333333BFCDCC4CBECDCC26
S11306C04C3ECDCC0CC09A99D93F3333B3BFCDCC7B
S11306D04CBE000020C0CDCCCC3E000000C00000C9
S11306E060409A9919C03333F3BFCDCC4CBECDCC06
S11306F08CBFCDCCCC3ECDCCCC3E9A99993F3333F4
S1130700F33FCDCC4CBFCDCC0CC06666663F9A9906
S1130710993ECDCCCC3D3333333F0000003FCDCCAC
S1130720CCBD9A9999BE9A99993ECDCCCCBECDCCEC
S11307304C3ECDCC4C3E666666BF666666BFCDCC8D
S1130740CCBD000000003333333F00000000666678
S113075066BF666666BFCDCCCC3ECDCCCC3E000039
S1130760003FCDCCCC3F000000BF000000BF000024
S1130770803F9A9999BFCDCC4CBECDCCCCBDCDCCCD
S11307804C3FCDCCCC3ECDCCCCBDCDCCCCBD9A99C0
S1130790993ECDCCCC3ECDCCCC3D0000003F0000FA
S11307A0003F9A9999BECDCCCCBECDCCCCBE9A9903
S11307B099BECDCC4CBF11241FBECFEFD0E1DEBF1C
S11307C0CDBF11E0A0E0B1E0EEE4F0E600E00BBF45
S11307D002C007900D92AA3DB107D9F725E0AAED12
S11307E0B1E001C01D92A635B207E1F70E94C41C16
S11307F00C94253005CC3F924F925F926F927F927A
S11308008F929F92AF92BF92CF92DF92EF92FF921C
S11308100F931F93CF93DF93CDB7DEB76C970FB6CB
S1130820F894DEBF0FBECDBF9C8F8B8FC090260582
S1130830D0902705E0902805F0902905C092430246
S1130840D0924402E0924502F092460280912A0539
S113085090912B05A0912C05B0912D058093470212
S113086090934802A0934902B0934A0280912E05C6
S113087090912F05A0913005B091310580934B02E2
S113088090934C02A0934D02B0934E0280910C01C0
S113089081119CC08AEDA82E81E0B82E8E010F5FD5
S11308A01F4FCE010D964C01E7E4F2E0FA8FE98F79
S11308B0312CF50141905190619071905F01A30139
S11308C09201C701B6010E948F2A20E030E040E087
S11308D05FE30E94922DF801619371938193919348
S11308E08F01A7019601C301B2010E94902A20E062
S11308F030E040E05FE30E94922DF4016193719334
S1130900819391934F013394F3E03F1649F0E98DBD
S1130910FA8DC190D190E190F190FA8FE98FC9CF0F
S1130920CE010D960E943C1D9B01AC0160E070E07D
S113093080E89FEB0E94742B6B017C019B01AC014E
S113094069817A818B819C810E94922DEB8DFC8D33
S11309506083718382839383A70196016D817E8175
S11309608F8198850E94922DEB8DFC8D6483758315
S113097086839783A701960169857A858B859C85F3
S11309800E94922DEB8DFC8D6087718782879387FF
S11309906AED71E083E492E00E940F1D6C960FB63D
S11309A0F894DEBF0FBECDBFDF91CF911F910F91A1
S11309B0FF90EF90DF90CF90BF90AF909F908F907B
S11309C07F906F905F904F903F9008956AED71E033
S11309D083E492E00E940F1D10920C01DFCF2F924E
S11309E03F924F925F926F927F928F929F92AF92BB
S11309F0BF92CF92DF92EF92FF920F931F93CF9308
S1130A00DF93CDB7DEB7AC970FB6F894DEBF0FBE59
S1130A10CDBF9CA78BA76091260570912705809177
S1130A2028059091290520E030E44CE156E40E9429
S1130A30742B609343027093440280934502909315
S1130A40460260912A0570912B0580912C059091A6
S1130A502D0520E030E44CE156E40E94742B6093B1
S1130A604702709348028093490290934A0260912E
S1130A702E0570912F05809130059091310520E06D
S1130A8030E44CE156E40E94742B60934B02709363
S1130A904C0280934D0290934E0283E492E00E94B4
S1130AA03C1D2B013C018090270290902802A090CD
S1130AB02902B0902A029BE1E92E92E0F92E0BE282
S1130AC012E0CE0101966C01F7016191719181915F
S1130AD091917F019B01AC010E94902AA501940190
S1130AE00E94922DF60161937193819391936F010A
S1130AF09B01AC010E94902A9B01AC01F80160812A
S1130B007181828193810E94902AF801619371938B
S1130B10819391938F01F7E2EF16F2E0FF06A1F6BD
S1130B20A3019201C301B2010E94922D6FA378A781
S1130B3089A79AA786EE91E09EA38DA300E010E01A
S1130B401801E7E3F2E0F88BEF87C1018B5E9E4F5B
S1130B509E878D87F101E75CFE4FFA8BE98B8BE270
S1130B6092E09C8B8B8BF101E35AFE4FFE8BED8B55
S1130B70CE010196988F8F8B13E0812C912C540118
S1130B80EF89F88D6191719181919191F88FEF8B3B
S1130B90ED89FE892191319141915191FE8BED8B2B
S1130BA0EB89FC89C190D190E190F190FC8BEB8BA7
S1130BB0C98EDA8EEB8EFC8EE989FA8941905190C8
S1130BC061907190FA8BE98BEF85F889C190D1908F
S1130BD0E190F190F88BEF87CD8EDE8EEF8EF8A248
S1130BE0ED85FE85C190D190E190F190FE87ED876F
S1130BF0C9A2DAA2EBA2FCA20E94922D6B017C0195
S1130C00A3019201698D7A8D8B8D9C8D0E94922D0A
S1130C109B01AC01C701B6010E94902A6B017C01C3
S1130C2029A13AA14BA15CA16D8D7E8D8F8D98A1D8
S1130C300E94922D9B01AC01C701B6010E94902A2B
S1130C409B01AC01C501B4010E94902A4B015C01D7
S1130C50115009F095CF2FA138A549A55AA50E9496
S1130C60742BEDA1FEA16193719381939193FEA3E3
S1130C70EDA3FCE02F0E311C84E22816310409F0A8
S1130C8060CF4BA55CA563E472E086EE91E00E9420
S1130C90B81E60911A0270E080E090E00E940D2C72
S1130CA0AB01BC018BA59CA5AC960FB6F894DEBF36
S1130CB00FBECDBFDF91CF911F910F91FF90EF90A9
S1130CC0DF90CF90BF90AF909F908F907F906F9068
S1130CD05F904F903F902F900C94391F3F924F920A
S1130CE05F926F927F928F929F92AF92BF92CF92B8
S1130CF0DF92EF92FF920F931F93CF93DF9300D075
S1130D001F92CDB7DEB78C019B838A83312C23E3FA
S1130D10422E542C23E7622E2FEB722EEA81FB81A4
S1130D2080809180A280B38075016401E894F7F813
S1130D3023E333E343E75FE3C701B6010E94872D52
S1130D401816A4F4A5019401C701B6010E94742BDE
S1130D5020E030E040E85FEB0E946D2B81110DC173
S1130D60EA81FB81408251826282738233948A8158
S1130D709B8104969B838A8393E03912CFCF40EE04
S1130D805BEC60E17FE3C8010E94391F2801712CEC
S1130D90F20180809180A280B38075016401E8949F
S1130DA0F7F820E030E040E85FE3C701B6010E94B5
S1130DB0872D1816BCF4A5019401C701B6010E9441
S1130DC0742B20E030E040E85FEB0E946D2B811132
S1130DD0CAC080E090E0A0E8BFEBF2018083918379
S1130DE0A283B3837394F4E04F0E511C83E0781212
S1130DF0CFCF7801A12CB12CF70161917191819130
S1130E0091917F0126E03FEF49E75CE40E94922D37
S1130E100E94DC2B6C01862F992787FD909579839E
S1130E200E94792A7981872F992787FD90950E94BE
S1130E30792A8C2D992787FD90950E94792A8D2DEA
S1130E40992787FD90950E94792AFFEFAF1ABF0A70
S1130E5083E0A816B10481F680911201992787FDD9
S1130E6090950E94792A8091F601992787FD9095A3
S1130E700E94792AF801C080D180E280F38020E0CA
S1130E803FEF4FE757E4C701B6010E94922D0E943D
S1130E90E12B70933A056093390520E03FEF4FE76B
S1130EA057E4F80164817581868197810E94922DAF
S1130EB00E94DC2B9B0177FD78C030933C05209386
S1130EC03B0520E03FEF4FE757E4F801608571856B
S1130ED0828593850E94922D0E94DC2B9B0177FDD5
S1130EE05FC030933E0520933D0520E030E0A9012A
S1130EF0C701B6010E946D2B87FD4AC010923F05C1
S1130F0020E030E0A901F801648175818681978130
S1130F100E946D2B87FD40C01092400520E030E018
S1130F20A901F80160857185828593850E946D2BE6
S1130F3087FD40C01092410580EA8BBB0F900F9053
S1130F400F90DF91CF911F910F91FF90EF90DF9061
S1130F50CF90BF90AF909F908F907F906F905F9055
S1130F604F903F90089580E090E0A0E8BFE3F20145
S1130F7080839183A283B38335CF83E393E3A3E791
S1130F80BFE3EA81FB8180839183A283B383EECEA6
S1130F9081E080933F05B4CF81E080934005BECFCC
S1130FA022273327261B370B9CCF22273327261BC8
S1130FB0370B83CF81E080934105BECF2F923F92C0
S1130FC04F925F926F927F928F929F92AF92BF9255
S1130FD0CF92DF92EF92FF920F931F93CF93DF9301
S1130FE0CDB7DEB7E0970FB6F894DEBF0FBECDBF26
S1130FF00E94EE1FCE018596FEDB8091390590910B
S11310003A05E0903905F0903A0510913F0599278B
S11310100E94792A8F2D90E00E94792A812F90E0F6
S11310200E94792A80913B0590913C05E0903B0514
S1131030F0903C051091400599270E94792A8F2D44
S113104090E00E94792A812F90E00E94792A809171
S11310503D0590913E05E0903D05F0903E051091D0
S1131060410599270E94792A8F2D90E00E94792AC0
S1131070812F90E00E94792A80912605909127057E
S1131080A0912805B09129058093430290934402CE
S1131090A0934502B093460280912A0590912B05B6
S11310A0A0912C05B0912D0580934702909348029E
S11310B0A0934902B0934A0280912E0590912F0586
S11310C0A0913005B091310580934B0290934C026E
S11310D0A0934D02B0934E028091F6019091F701D6
S11310E0029709F4B5C280911301813009F4BDC29D
S11310F02091CB043091CC044091CD045091CE0486
S11311006091CF047091D0048091D1049091D20465
S1131110A2E00E94DC2F2093CB043093CC044093B4
S1131120CD045093CE046093CF047093D004809385
S1131130D1049093D2042091C3043091C40440910B
S1131140C5045091C6046091C7047091C80480918D
S1131150C9049091CA040E94DC2F2093C3043093E5
S1131160C4044093C5045093C6046093C7047093A9
S1131170C8048093C9049093CA0484E690E00E9452
S1131180792A0E94EC1F0E94B82380931A0280914E
S113119013018F3F09F420C10E94E321CE010D9673
S11311A00E947222CE0101960E943E2329E132E080
S11311B04BE152E0BE01635F7F4FCE0101960E9476
S11311C0D92380931A0267E372E08BE192E00E94D4
S11311D0172760911A0280911902689FB0011124A7
S11311E0882777FD8095982F0E940F2CAB01BC01B6
S11311F087E392E00E94391F87E392E00E943C1D3E
S11312006093BF047093C0048093C1049093C2049C
S11312108BE192E00E94C41F4E0199E1890E911C5A
S1131220C401DDDB80910C028A350CF4DDC08BE552
S113123080930C0210911A02113009F4ADC010927F
S11312400B0210920A026091F4017091F5016E5F35
S11312507F4F7093F5016093F401882777FD8095A3
S1131260982F0E940F2C6B017C0120E030E046E1B6
S113127053E46091040170910501809106019091FD
S113128007010E948F2A9B01AC01C701B6010E948D
S1131290872D18160CF499C01092F7011092F601DC
S11312A0C090BF04D090C004E090C104F090C20488
S11312B02FE632E143E85BE3C701B6010E946D2BE0
S11312C087FF08C080911902189FC001112401975B
S11312D009F4B0C12FE632E143E05CE3C701B60193
S11312E00E94872D18166CF48091150290911602B5
S11312F00196909316028093150210921802109290
S11313001702F09042051091430520904405309057
S113131045054090460550904705609048057090FB
S113132049052F2D312FA101B201C3012F3C3740B4
S113133041055105610571058105910509F008F420
S1131340E5C080910C0218160CF06AC1809112015C
S1131350843009F48DC1813009F428C1CE01859609
S1131360BDDCC401BBDCE0960FB6F894DEBF0FBE53
S1131370CDBFDF91CF911F910F91FF90EF90DF9040
S1131380CF90BF90AF909F908F907F906F905F9021
S11313904F903F902F9008958091F2019091F30126
S11313A002969093F3018093F2011092F50110924A
S11313B0F40162EB72E00E94802F90930B02809301
S11313C00A02883592400CF467CF82E090E0909353
S11313D0F7018093F60164CFCE0149964C018091C8
S11313E00C028A350CF023CFCE0185960E943C1D59
S11313F06B017C01609306027093070280930802DC
S11314009093090210911A02612F70E080E090E03D
S11314100E940F2C9B01AC01C701B6010E94922DC2
S11314206B017C01609302027093030280930402B7
S11314309093050220E030E0A9010E946D2B8823DF
S113144009F478C0A0900801B090090122E0A21626
S1131450B10409F438C1B5016150710980E090E02C
S11314600E940D2C2091FE013091FF014091000259
S1131470509101020E94922D9B01AC01C701B6015B
S11314800E94902A6B017C01B50180E090E00E94EB
S11314900D2C9B01AC01C701B6010E94742B6B019A
S11314A0AB01BC014093FA015093FB016093FC0132
S11314B07093FD017C018FEFA81AB80AB09209015C
S11314C0A092080120E030E0A901B601C7010E9402
S11314D06D2B8823E9F12AE037ED43E25DE3B601A1
S11314E0C7010E946D2B87FF42C06091F801709183
S11314F0F9016E5F7F4F7093F9016093F80180E00A
S113150090E00E940D2C9B01AC0138C084E08093D4
S1131510120110920D0210920E0210920F021092FC
S113152010021092110210921202109213021092E1
S1131530140214CF82E090E0909309018093080193
S11315401092FA011092FB011092FC011092FD011D
S113155020E030E0A9016091FE017091FF018091CB
S11315600002909101020E946D2B8111BECF109256
S1131570F9011092F80120E030E0A9016091000126
S11315807091010180910201909103010E946D2BE1
S113159087FF49C082E090E09093F7018093F601C1
S11315A080910C028E5F80930C027ACEE0910A0146
S11315B0F0910B01A0911502B0911602EA17FB07F6
S11315C054F520910D0230910E0240910F0250917A
S11315D01002609111027091120280911302909195
S11315E01402205F384D4F4F5F4F6F4F7F4F8F4F27
S11315F09F4F59016A01E62EF72F082FE92F2F2D4F
S1131600312FA101B201C301FF2E1E2F0E94F12F21
S113161011F008F050C010921802109217029ECEDA
S11316208091120198CE1092F7011092F601109257
S11316300C0236CE80911702909118020196909375
S1131640180280931702109216021092150259CEB6
S11316508AE590E00E94792A0E94EA1F5799FECFFA
S113166080911301813009F043CD0E94EF1F85CD95
S1131670A0911702B0911802E0910A01F0910B01B8
S1131680EA17FB07DCF481E080931201F0920D026B
S113169010930E0220920F02309210024092110217
S11316A05092120260921302709214021092180265
S11316B0109217027FCF84E08093120110921602D9
S11316C0109215024BCEA7019601C701B6010E94E4
S11316D0902A20E030E040E05FE30E94922DDFCECC
S11316E02F923F924F925F926F927F928F929F922E
S11316F0AF92BF92CF92DF92EF92FF920F931F931C
S1131700CF93DF93CDB7DEB729970FB6F894DEBF3A
S11317100FBECDBFE091F904A091F804AD83B09160
S1131720F704BF832090FC043090FD04910140E055
S113173050E060E070E080E090E003E00E94BA2FA7
S1131740F22F3A834B8359876E83B72FA82F98873C
S11317500E94BA2F59016A017B018C012F2F3A8113
S11317604B8159856E817B2F8A2F98850E94D32FB8
S11317705101C12CD12CE12CF12C00E010E00E948D
S1131780D32F59016A017B01F82F192F04E00E941D
S1131790BA2F0F2F0E94E82F59016A017B01F82FFD
S11317A0192F04E00E94BA2F0F2F0E94E82F59012D
S11317B06A017B01F82F192F04E00E94BA2F0F2F22
S11317C00E94E82F07E00E94BA2F59016A017B01A9
S11317D08C01F091FA04F887A091FB04A250AB307D
S11317E008F01BC1B0E0AA0FBB1FAA0FBB1FAA0FB2
S11317F0BB1FAF57BE4F5C9011964C901197129639
S11318003C90129713962C90139714962C9114973E
S1131810298315968C9115978A831696FC911697B1
S1131820FB8317962C912E832E2F30E040E050E05E
S113183060E070E080E090E020583C4544495B4C17
S11318406E407109810991090E94D32F39014A011F
S11318506C83B72FA82FF92F2F8130E040E050E0A0
S113186060E070E080E090E004E00E94BA2FAF8076
S1131870B12CC12CD12CE12CF12C00E010E00E9401
S1131880E82F59016A017B01E82F192F04E00E9417
S1131890BA2F0E2F0E94E82F04E00E94BA2F59019C
S11318A06A017B018C019301A4016C817B2F8A2F37
S11318B09F2F0E94D32FB22EC32ED42E652E762EA8
S11318C0872E982E9C83AD816A2F70E080E090E093
S11318D02CE330E040E050E00E94932FA22EA32F8F
S11318E0F42FE52F7B018C012B2D3C2D4D2D562DF6
S11318F0672D782D892D9C81BA2ECF2EDE2E0E9445
S1131900D32F39014A01B62F7C83F82FE92F28857C
S113191030E040E050E060E070E080E090E0AFEF65
S11319200E94DC2FA52CB42CC32CD22CE980FA8085
S11319300B811E810E94D32F59016A017B01A82FBC
S1131940192F02E00E94BA2F0A2F0E94E82F590192
S11319506A017B01A82F192F04E00E94BA2F0A2FD5
S11319600E94E82F59016A017B01A82F192F04E076
S11319700E94BA2F0A2F0E94E82F07E00E94BA2F74
S113198059016A017B018C019301A4016B2F7C81B5
S11319908F2F9E2F0E94D32F2093C3043093C4040F
S11319A04093C5045093C6046093C7047093C8045D
S11319B08093C9049093CA042C5E3441484651096B
S11319C061097109810991092093CB043093CC04F6
S11319D04093CD045093CE046093CF047093D0040D
S11319E08093D1049093D20429960FB6F894DEBF65
S11319F00FBECDBFDF91CF911F910F91FF90EF905C
S1131A00DF90CF90BF90AF909F908F907F906F901A
S1131A105F904F903F902F900895512C412C312C82
S1131A20212C19821A821B821E82FECE4F925F9253
S1131A306F927F92AF92BF92CF92DF92EF92FF921A
S1131A400F931F93CF93DF93CDB7DEB7A4970FB651
S1131A50F894DEBF0FBECDBF8C015B012091CB0497
S1131A603091CC044091CD045091CE046091CF04C8
S1131A707091D0048091D1049091D2040E944A2C98
S1131A8027EB39E540E85FE30E94922D2EEB37EF18
S1131A9048E958E30E94922D2B013C010E94712BCE
S1131AA06B017C0169837A838B839C83C301B201BC
S1131AB00E94412E6D837E838F83988719861A86B0
S1131AC01B861C86DC01CB01B0588D879E87AF87AF
S1131AD0B88BC98ADA8AEB8AFC8A1D8A1E8A1F8A15
S1131AE0188E198E1A8E1B8E1C8E1D8E1E8E1F8EA6
S1131AF018A280E090E0A0E8BFE389A39AA3ABA377
S1131B00BCA3A501BE016F5F7F4FC8010E94591E8F
S1131B10A4960FB6F894DEBF0FBECDBFDF91CF9170
S1131B201F910F91FF90EF90DF90CF90BF90AF90F7
S1131B307F906F905F904F9008954F925F926F9255
S1131B407F92AF92BF92CF92DF92EF92FF920F9368
S1131B501F93CF93DF93CDB7DEB7A4970FB6F89456
S1131B60DEBF0FBECDBF8C015B012091CB04309151
S1131B70CC044091CD045091CE046091CF04709177
S1131B80D0048091D1049091D2040E944A2C27EB76
S1131B9039E540E85FE30E94922D2EEB37EF48E9E8
S1131BA058E30E94922D2B013C010E94712B6B0182
S1131BB07C0169837A838B839C83C301B2010E9475
S1131BC0412E2B013C0177FA709477F870944D8282
S1131BD05E826F82788619861A861B861C866D87BC
S1131BE07E878F87988BC98ADA8AEB8AFC8A1D8A5A
S1131BF01E8A1F8A188E198E1A8E1B8E1C8E1D8E9D
S1131C001E8E1F8E18A280E090E0A0E8BFE389A397
S1131C109AA3ABA3BCA3A501BE016F5F7F4FC8010C
S1131C200E94591EA4960FB6F894DEBF0FBECDBF16
S1131C30DF91CF911F910F91FF90EF90DF90CF90A4
S1131C40BF90AF907F906F905F904F900895CF9228
S1131C50DF92EF92FF920F931F93CF93DF93CDB751
S1131C60DEB7C854D1090FB6F894DEBF0FBECDBF9E
S1131C708C01CB017A016901AE014F5C5F4FB80161
S1131C800E94B81ECE01C1960E948F1FF801808168
S1131C909181A281B381B0588DA39EA3AFA3B8A7AD
S1131CA04481558166817781705849A75AA76BA7EB
S1131CB07CA780859185A285B385B0588DA79EA702
S1131CC0AFA7B8ABCE0185960E948F1FAE01435CCF
S1131CD05F4FBE016B5D7F4FCE01C1960E94B81E5F
S1131CE0CE01CD960E948F1F21968CAD9DADAEADD9
S1131CF0BFAD219789839A83AB83BC8389A99AA9B1
S1131D00ABA9BCA98D839E83AF83B8878DA19EA107
S1131D10AFA1B8A589879A87AB87BC8725968CAD78
S1131D209DADAEADBFAD25978D879E87AF87B88B30
S1131D308DA99EA9AFA9B8AD898B9A8BAB8BBC8BAF
S1131D4089A59AA5ABA5BCA58D8B9E8BAF8BB88FAF
S1131D5029968CAD9DADAEADBFAD2997898F9A8F75
S1131D60AB8FBC8F89AD9AADABADBCAD8D8F9E8F63
S1131D70AF8FB8A30DA51EA52FA538A909A31AA333
S1131D802BA33CA3A601BE016F5F7F4FC7010E9436
S1131D90591EC85BDF4F0FB6F894DEBF0FBECDBF30
S1131DA0DF91CF911F910F91FF90EF90DF90CF9033
S1131DB008952F923F924F925F926F927F928F92EB
S1131DC09F92AF92BF92CF92DF92EF92FF921F93B6
S1131DD0CF93DF93CDB7DEB760970FB6F894DEBF2D
S1131DE00FBECDBF1B01DC018D909D90AD90BC90CA
S1131DF013971496CD90DD90ED90FC90179718965C
S1131E008D919D910D90BC91A02D8D839E83AF8368
S1131E10B887A5019401C701B6010E941A2B6D87EA
S1131E207E878F87988BA5019401C501B4010E9418
S1131E30922D4B015C01A7019601C701B6010E94D6
S1131E40922D9B01AC01C501B4010E94902A0E940D
S1131E504B2E69877A878B879C8725E434E24FE78A
S1131E605FE30E94922D9B01AC016D817E818F8185
S1131E7098850E941A2B4B015C0115E0C501B40141
S1131E800E94712B20E030E040E450E40E94F52DE4
S1131E906B017C01C501B4010E94412E20E030E0B9
S1131EA040E450E40E94F52D4B015C012EEA39EC2C
S1131EB046E257E4C701B6010E94922D9B01AC0192
S1131EC069857A858B859C850E948F2A6B017C01AC
S1131ED022E539E547E257E4C501B4010E94922D99
S1131EE02D813E814F8158850E94902AA701960139
S1131EF00E941A2B6B017C010E94712B69837A83E7
S1131F008B839C83C701B6010E94412E2B013C01A7
S1131F1025E434E24FE75FE30E94922D29813A8160
S1131F204B815C810E941A2B4B015C01115009F01A
S1131F30A5CF2AE83CE54BED5BE3C301B2010E9467
S1131F40922DA30192010E94922D9B01AC0160E0AD
S1131F5070E080E89FE30E948F2A0E944B2E9B0131
S1131F60AC0162E375EA82EC9AE40E94742B4B01A3
S1131F705C01F101C082D182E282F3828D859E856B
S1131F80AF85B88984839583A683B78329813A81F1
S1131F904B815C8169857A858B859C850E94922D15
S1131FA06B017C012AE83CE54BED5BE3C501B40120
S1131FB00E94922DA30192010E94922D2D813E81B7
S1131FC04F8158850E94902AA30192010E94922D6C
S1131FD09B01AC01C701B6010E94902AA50194019E
S1131FE00E948F2AD10118966D937D938D939C93B3
S1131FF01B9760960FB6F894DEBF0FBECDBFDF917E
S1132000CF911F91FF90EF90DF90CF90BF90AF9052
S11320109F908F907F906F905F904F903F902F9004
S113202008952F923F924F925F926F927F928F9278
S11320309F92AF92BF92CF92DF92EF92FF920F9353
S11320401F93CF93DF93CDB7DEB7AC970FB6F89459
S1132050DEBF0FBECDBF1C017B018A01DB014D90A9
S11320605D906D907C90C301B2010E94712B6DA3B1
S11320707EA38FA398A7F701C480D580E680F7805C
S1132080C701B6010E94712B4B015C01C301B2016F
S11320900E94412E2B013C01C701B6010E94412E32
S11320A06B017C0177FA709477F870948DA19EA1EE
S11320B0AFA1B8A5B05889A79AA7ABA7BCA7A5019B
S11320C09401C301B2010E94922D69837A838B83A8
S11320D09C83A3019201C701B6010E94922D6D83D6
S11320E07E838F8398878DA19EA1AFA1B8A5898790
S11320F09A87AB87BC87D701C601B0588D879E8766
S1132100AF87B88B898A9A8AAB8ABC8A1D8A1E8A51
S11321101F8A188EA501940169A57AA58BA59CA593
S11321200E94922D698F7A8F8B8F9C8F29A53AA557
S11321304BA55CA5C701B6010E94922D6D8F7E8FC1
S11321408F8F98A349A25AA26BA27CA2A801BE01B8
S11321506F5F7F4FC1010E94591EAC960FB6F89471
S1132160DEBF0FBECDBFDF91CF911F910F91FF90C6
S1132170EF90DF90CF90BF90AF909F908F907F9023
S11321806F905F904F903F902F9008951BB81AB8AE
S1132190E5E9F0E01082599A8AB188698AB98081A8
S11321A08E60808387E689B91092900081E090E088
S11321B0A0E0B0E08093D3049093D404A093D5041A
S11321C0B093D6048093D7049093D804A093D904F1
S11321D0B093DA048093DB049093DC04A093DD04D1
S11321E0B093DE048093DF049093E004A093E104B1
S11321F0B093E2048093E3049093E404A093E50491
S1132200B093E6048093E7049093E804A093E90470
S1132210B093EA048093EB049093EC04A093ED0450
S1132220B093EE048093EF049093F004A093F10430
S1132230B093F2048093F3049093F404A093F50410
S1132240B093F6048093F7048093F8048093F90420
S11322508093FA048093FB0481E090E09093FD0462
S11322608093FC049093FF048093FE0408951F92CE
S11322700F920FB60F9211242F938F939F93AF93C6
S1132280BF938BB390EF89278BBB8CB180935002A3
S11322908091510290915202A0915302B091540244
S11322A0BA2FA92F982F8827809351029093520216
S11322B0A0935302B0935402809151029091520220
S11322C0A0915302B09154028827809351029093B5
S11322D05202A0935302B093540220915002809171
S11322E0510290915202A0915302B0915402822B58
S11322F08093510290935202A0935302B0935402DC
S1132300809111018C3008F049C080911101843012
S113231008F0D4C18091D3049091D404A091D50441
S1132320B091D604892F9A2FAB2FBB27A7FDBA955E
S11323308093D3049093D404A093D504B093D6048B
S11323408091D3049091D404A091D504B091D60483
S1132350BB278093D3049093D404A093D504B09363
S1132360D6048091D3049091D404A091D504B09163
S1132370D60420915002B22B8093D3049093D404BA
S1132380A093D504B093D604809111018F5F8093FC
S11323901101809111018C3009F42DC2809110013A
S11323A08C3008F049C080911001843008F041C19C
S11323B08091DF049091E004A091E104B091E204E3
S11323C0892F9A2FAB2FBB27A7FDBA958093DF04E3
S11323D09093E004A093E104B093E2048091DF04BD
S11323E09091E004A091E104B091E204BB278093B2
S11323F0DF049093E004A093E104B093E20480919D
S1132400DF049091E004A091E104B091E2042091F2
S11324105002B22B8093DF049093E004A093E10474
S1132420B093E204809110018F5F8093100180913A
S113243010018C3009F4E3C180910F01843060F500
S113244080910F018230F0F08091FE049091FF049E
S1132450892F99279093FF048093FE048091FE04B2
S11324609091FF0499279093FF048093FE04809138
S1132470FE049091FF0420915002922B9093FF044C
S11324808093FE0480910F018F5F80930F018091F0
S11324900F01843009F4ABC180910E01803178F4CE
S11324A080910E01843008F04EC180910E018F5F3F
S11324B080930E0180910E01803109F494C18091C2
S11324C00D01873090F480910D0181117AC08091C3
S11324D050028093F70480910D018F5F80930D016A
S11324E080910D01873009F48EC180915102909141
S11324F05202A0915302B09154028C3A9440AF43DB
S1132500BF4309F465C18091510290915202A09198
S11325105302B09154028C3A9540AF43BF4309F43F
S11325205CC18091510290915202A0915302B091EA
S113253054028C3A9B40AF43BF4309F451C180918C
S1132540510290915202A0915302B09154028C3ADC
S11325509E40AF43BF4309F416C28091510290914B
S11325605202A0915302B09154028C3A9F40AF435F
S1132570BF4309F400C28091FE049091FF0480914E
S11325804F028823A1F081E08093130157988FEFC5
S11325909FEF9093FF048093FE0410924F021092D9
S11325A05102109252021092530210925402BF919F
S11325B0AF919F918F912F910F900FBE0F901F900D
S11325C0189580910D01813009F4D8C180910D01D5
S11325D0823009F41BC280910D01833009F41BC2BF
S11325E080910D01843009F41BC280910D01853066
S11325F008F471CF8091FC049091FD04892F9927F0
S11326009093FD048093FC048091FC049091FD045C
S113261099279093FD048093FC048091FC0490918D
S1132620FD0420915002922B9093FD048093FC04AE
S113263052CF80911001883008F4ECC080911001D1
S11326408C3008F0EFCE8091E7049091E804A091DB
S1132650E904B091EA04892F9A2FAB2FBB27A7FD79
S1132660BA958093E7049093E804A093E904B093A7
S1132670EA048091E7049091E804A091E904B09100
S1132680EA04BB278093E7049093E804A093E90449
S1132690B093EA048091E7049091E804A091E904DE
S11326A0B091EA0420915002B22B8093E7049093F6
S11326B0E804A093E904B093EA04B4CE8091110134
S11326C0883008F41DC1809111018C3008F05CCE73
S11326D08091DB049091DC04A091DD04B091DE04D0
S11326E0892F9A2FAB2FBB27A7FDBA958093DB04C4
S11326F09093DC04A093DD04B093DE048091DB04AA
S11327009091DC04A091DD04B091DE04BB2780939A
S1132710DB049093DC04A093DD04B093DE04809189
S1132720DB049091DC04A091DD04B091DE042091DF
S11327305002B22B8093DB049093DC04A093DD045D
S1132740B093DE0421CE80910E01883008F49DC040
S113275080910E018C3008F019C18091EF049091A2
S1132760F004A091F104B091F204892F9A2FAB2FB9
S1132770BB27A7FDBA958093EF049093F004A09330
S1132780F104B093F2048091EF049091F004A091CD
S1132790F104B091F204BB278093EF049093F0040A
S11327A0A093F104B093F2048091EF049091F004AB
S11327B0A091F104B091F20420915002B22B8093C5
S11327C0EF049093F004A093F104B093F2046DCE5F
S11327D010924F0210921101CECE10921001CBCE66
S11327E010920F01C8CE8FEF80930E0168CE8FEF49
S11327F080930F0151CE8FEF80931101CFCD8FEFD6
S11328008093100119CE8FEF80930D0181E08093A6
S11328104F026BCE8091E3049091E404A091E5040F
S1132820B091E604892F9A2FAB2FBB27A7FDBA9549
S11328308093E3049093E404A093E504B093E60446
S11328408091E3049091E404A091E504B091E6043E
S1132850BB278093E3049093E404A093E504B0932E
S1132860E6048091E3049091E404A091E504B0911E
S1132870E60420915002B22B8093E3049093E40485
S1132880A093E504B093E604CDCD8091EB04909140
S1132890EC04A091ED04B091EE04892F9A2FAB2F94
S11328A0BB27A7FDBA958093EB049093EC04A09307
S11328B0ED04B093EE048091EB049091EC04A091AC
S11328C0ED04B091EE04BB278093EB049093EC04E9
S11328D0A093ED04B093EE048091EB049091EC048A
S11328E0A091ED04B091EE0420915002B22B80939C
S11328F0EB049093EC04A093ED04B093EE04D5CDD7
S11329008091D7049091D804A091D904B091DA04AD
S1132910892F9A2FAB2FBB27A7FDBA958093D70495
S11329209093D804A093D904B093DA048091D70487
S11329309091D804A091D904B091DA04BB27809374
S1132940D7049093D804A093D904B093DA04809167
S1132950D7049091D804A091D904B091DA042091BD
S11329605002B22B8093D7049093D804A093D90437
S1132970B093DA0409CD10920D01FDCD809150027F
S11329808093F804A8CD10920E01F5CD80910E012C
S1132990803108F08ACD8091F3049091F404A091E1
S11329A0F504B091F604892F9A2FAB2FBB27A7FD0E
S11329B0BA958093F3049093F404A093F504B09330
S11329C0F6048091F3049091F404A091F504B0917D
S11329D0F604BB278093F3049093F404A093F504C6
S11329E0B093F6048091F3049091F404A091F5045B
S11329F0B091F60420915002B22B8093F30490938B
S1132A00F404A093F504B093F6044FCD80915002E2
S1132A108093F90460CD809150028093FA045BCDD9
S1132A20809150028093FB0456CD2F923F924F9297
S1132A305F926F927F928F929F92AF92BF92CF924A
S1132A40DF92EF92FF920F931F93CF93DF93CDB753
S1132A50DEB7C755D1090FB6F894DEBF0FBECDBFA0
S1132A60FC0149875A876B877C87322E66961FAF95
S1132A700EAF669780809180A280B380C480D58099
S1132A80E680F78020E030E04AE754E46085718511
S1132A90828593850E94742B6D877E878F87988BA0
S1132AA0C501B4010E94412E2B013C01C501B401B2
S1132AB00E94712B6D837E838F83988720E030EE94
S1132AC04BEF54E469857A858B859C850E948F2A17
S1132AD023966CAF7DAF8EAF9FAF2397C701B6012E
S1132AE00E94712B609395027093960280939702D3
S1132AF090939802C701B6010E94412E6093590237
S1132B0070935A0280935B0290935C022EE23FE240
S1132B104BE15CE46D817E818F8198850E94922DCA
S1132B202D813E814F8158850E94922D4B015C017D
S1132B302BE335E24AE15CE4C301B2010E94922D29
S1132B40A30192010E94922D6B017C019B01AC01B7
S1132B50C501B4010E94902A698F7A8F8B8F9C8F54
S1132B600E944B2E69877A878B879C879B01AC01D7
S1132B700E94902A2D853E854F8558890E94902A6F
S1132B802D853E854F8558890E94922D6D8F7E8FAD
S1132B908F8F98A32EE23FE24BE15CE4C501B401C0
S1132BA00E94922D4B015C012BE335E24AE15CE487
S1132BB0C701B6010E94922D9B01AC01C501B4016D
S1132BC00E94902A298D3A8D4B8D5C8D0E94742B26
S1132BD09B01AC016D8D7E8D8F8D98A10E94902AF2
S1132BE00E944B2E4B015C0129853A854B855C85FF
S1132BF06D857E858F8598890E94902AA501940110
S1132C000E94742B60966CAF7DAF8EAF9FAF6097C0
S1132C1020E839EF44E858E4C301B2010E94922D40
S1132C202D813E814F8158850E94922D6B017C013C
S1132C30A501940169857A858B859C850E94922DD6
S1132C409B01AC01C701B6010E94742B64966CAF62
S1132C507DAF8EAF9FAF649760962CAD3DAD4EAD0A
S1132C605FAD6097C301B2010E94922D6B017C019C
S1132C7064962CAD3DAD4EAD5FAD64976D817E81A4
S1132C808F8198850E94922D9B01AC01C701B601EA
S1132C900E948F2A6AA77BA78CA79DA760962CAD5C
S1132CA03DAD4EAD5FAD60976D817E818F8198851E
S1132CB00E94922D6B017C0164962CAD3DAD4EAD0E
S1132CC05FAD6497C301B2010E94922D9B01AC01D8
S1132CD0C701B6010E94902A6EA37FA388A799A773
S1132CE02AA53BA54CA55DA5CA01B9010E94902A5D
S1132CF06093990370939A0380939B0390939C032E
S1132D002EA13FA148A559A5CA01B9010E94902A44
S1132D1060939D0370939E0380939F039093A003FD
S1132D2020E030E040E950E46AA57BA58CA59DA590
S1132D300E94922D2AA53BA54CA55DA50E94922D2B
S1132D4020E030E040EC5FE30E948F2A6093A1030F
S1132D507093A2038093A3039093A40321EE36E41B
S1132D6046EA50E46EA17FA188A599A50E94922D00
S1132D702AA53BA54CA55DA50E94922D6093A503B1
S1132D807093A6038093A7039093A8038EA19FA199
S1132D90A8A5B9A5B0588093D1029093D202A0936C
S1132DA0D302B093D4022AA53BA54CA55DA52093DC
S1132DB0D5023093D6024093D7025093D80220E034
S1132DC030E040E450EC6EA17FA188A599A50E9453
S1132DD0922D2AA53BA54CA55DA50E94922D60933A
S1132DE0D9027093DA028093DB029093DC022AA565
S1132DF03BA54CA55DA5CA01B9010E94922D6B01AA
S1132E007C012EA13FA148A559A5CA01B9010E9480
S1132E10922D9B01AC01C701B6010E948F2A27EDB8
S1132E2033EB4DED5FE30E94922D6093DD027093CE
S1132E30DE028093DF029093E002A50194016AE927
S1132E4079E187EC95E40E94742B2C966CAF7DAFEE
S1132E508EAF9FAF2C97432D50E09A012D5F3F4FCB
S1132E60429FC001439F900D529F900D1124959550
S1132E70879524968FAF2497882309F495C4198ED7
S1132E8031E039871D8641E049A351E05D8F1BAED7
S1132E901CAE1DAE1EAE1EAA1FAA18AE19AE2896F1
S1132EA01CAE1DAE1EAE1FAE28971AAA1BAA1CAAE2
S1132EB01DAA93C18D83A82FAF5FA9A329852530AF
S1132EC008F481C43D814D85341709F429C3FD817B
S1132ED0FF9F80011124298D229FB0011124601BC2
S1132EE0710B882777FD8095982F0E940F2C0E94E4
S1132EF04B2E4B015C01398D632F70E080E090E034
S1132F000E940F2C2B013C0120E030E040E85FE3FD
S1132F100E948F2A69837A838B839C839B01AC01F3
S1132F200E94922D6B017C01B801882777FD809562
S1132F30982F0E940F2C9B01AC01C701B6010E947F
S1132F408F2A0E944B2EA50194010E94742B6B01C1
S1132F507C01A3019201C301B2010E94902A20E0E6
S1132F6030E040E85FE30E948F2AA50194010E94AB
S1132F70742B6AA37BA38CA39DA34985242F30E0E3
S1132F805D85852F90E03A8B298B1901281A390A1F
S1132F90D101A81BB90B11966896BFAFAEAF689765
S1132FA020E030E040E85FE3C301B2010E94902AD0
S1132FB04B015C012AA53BA54CA55DA56AA17BA19B
S1132FC08CA19DA10E94922D220C331C220C331C37
S1132FD0F101EB56FC4FFFA7EEA72081318142811E
S1132FE053810E94922DA30192010E94742B6D8B38
S1132FF07E8B8F8B988F68962EAD3FAD6897220F8E
S1133000331F220F331F68963FAF2EAF6897F90125
S1133010EB56FC4F2081318142815381C701B601B7
S11330200E94922D29813A814B815C810E94742BEC
S11330309B01AC016D897E898F89988D0E948F2AAE
S11330409B01AC01C501B4010E94922D162F7D8B0A
S11330508AAF092F49895A89440F551F440F551FB8
S11330605A8349839A012B563C4F862F972FAAAD3A
S1133070B02FF90180839183A283B383F101E353D9
S1133080FD4F20813181428153816AA57BA58CA5A6
S11330909DA50E94922D4B015C01AEA5BFA52D916B
S11330A03D914D915C916EA17FA188A599A50E9447
S11330B0922DA30192010E94742B9B01AC01C501C6
S11330C0B4010E948F2A2AA13BA14CA15DA10E94B8
S11330D0922D4B015C016896EEADFFAD6897E3530A
S11330E0FD4F2081318142815381C701B6010E9485
S11330F0922D9B01AC01C501B4010E948F2A2B01C2
S11331003C01E981FA81E353FD4F6083718382833B
S113311093832D883AACBD8DAB2EB12CF501EE0F07
S1133120FF1FEE0FFF1FEA55FB4FC590D590E590AA
S1133130F490F501EE0FFF1FEE0FFF1FEA56FE4F4E
S1133140259135914591549123966CAD7DAD8EAD0D
S11331509FAD23970E94922D9B01AC01C701B6013C
S11331600E94902A2BAD3CAD4DAD5EAD0E94922DD8
S11331706B017C01ED81E11156C0A30192010E9413
S1133180922D9B01AC016AA97BA98CA99DA90E94DF
S1133190902A6AAB7BAB8CAB9DAB212F322D432D98
S11331A0502FC701B6010E94922D9B01AC016EA95C
S11331B07FA988AD99AD0E948F2A6EAB7FAB88AF93
S11331C099AFFD8DFF5FFD8F39853F5F3987249669
S11331D04FAD2497431708F42CC189A19D859817F6
S11331E008F068CEBD85BF5FBD876B2F70E06E5F52
S11331F07F4F882777FD8095982F0E940F2C9B0185
S1133200AC012C966CAD7DAD8EAD9FAD2C970E941C
S1133210F52D6BAF7CAF8DAF9EAFED85E98FF1E0FF
S1133220F9A31D824BCEC5010196FC01EE0FFF1FD1
S1133230EE0FFF1FEA55FB4F85909590A590B49033
S1133240FC01EE0FFF1FEE0FFF1FEA56FE4F259104
S113325035914591549123966CAD7DAD8EAD9FAD66
S113326023970E94922D9B01AC01C501B4010E94D9
S1133270902A2BAD3CAD4DAD5EAD0E94922D698B75
S11332807A8B8B8B9C8B3D81232F30E03E8B2D8B57
S1133290C901880F991F880F991FFC01EF56FD4F34
S11332A020813181428153812D833E834F8358870E
S11332B09C012B5A3D4FD9018D919D910D90BC914C
S11332C0A02D89839A83AB83BC83A70196016D816A
S11332D07E818F8198850E94922D4B015C01298902
S11332E03A894B895C8969817A818B819C810E94AE
S11332F0922D9B01AC01C501B4010E94902A4B019F
S11333005C01A30192010E94922D9B01AC016AA968
S11333107BA98CA99DA90E94902A6AAB7BAB8CAB3C
S11333209DAB212F322D432D502FC501B4010E9496
S1133330922D9B01AC016EA97FA988AD99AD0E9425
S11333408F2A6EAB7FAB88AF99AF20E030E0A90144
S11333506EA17FA188A599A50E94872D29813A8114
S11333604B815C8118160CF0EEC1C701B6010E94B6
S1133370922D6B017C012D813E814F815885698995
S11333807A898B899C890E94922D9B01AC01C7018B
S1133390B6010E948F2A6B017C01ED89FE89BF0171
S11333A0882777FD8095982F0E940F2C9B01AC01F4
S11333B0C701B6010E94922D212F322D432D502F8B
S11333C00E94922D6B017C01F98D6F2F70E080E0DB
S11333D090E00E940F2C20E030E040E85FE30E9480
S11333E0902A2EA13FA148A559A50E94922D9B0188
S11333F0AC01C701B6010E94742B9B01AC01289655
S11334006CAD7DAD8EAD9FAD28970E94902A289615
S11334106CAF7DAF8EAF9FAF28972D8D2E5F2D8F14
S113342039853F5F398724964FAD2497431708F0B9
S1133430D4CE60962CAD3DAD4EAD5FAD60976EA918
S11334407FA988AD99AD0E94922D6B017C01609695
S11334502CAD3DAD4EAD5FAD60976AA97BA98CA93B
S11334609DA90E94922D4B015C0164962CAD3DAD4B
S11334704EAD5FAD64976EA97FA988AD99AD0E94EA
S1133480922D9B01AC01C501B4010E94902A66965D
S1133490AEADBFAD66976D937D938D939C9313975B
S11334A028962CAD3DAD4EAD5FAD289714962D9367
S11334B03D934D935C93179764962CAD3DAD4EAD03
S11334C05FAD64976AA97BA98CA99DA90E94922DDE
S11334D09B01AC01C701B6010E948F2A6696EEAD2E
S11334E0FFAD66976087718782879387C95ADF4FDC
S11334F00FB6F894DEBF0FBECDBFDF91CF911F9101
S11335000F91FF90EF90DF90CF90BF90AF909F907E
S11335108F907F906F905F904F903F902F90089581
S1133520832F90E09E8B8D8BBC01882777FD80953F
S1133530982F0E940F2C6B017C019B01AC0160E071
S113354070E080E09FE30E94742B9B01AC0160E07B
S113355070E080E89FE30E948F2A0E944B2E4B016B
S11335605C01A9850A2F10E03801ED89FE896E1AE5
S11335707F0AF1E06F1A7108A701960160E070E01C
S113358080E89FE30E94742B20E030E040E85FE392
S11335900E94902AA50194010E94922D2EA13FA180
S11335A048A559A50E94922D660C771C660C771CC1
S11335B093012B563C4F3A832983D9012D913D9198
S11335C04D915C910E94922D362E272E898B9AA3C1
S11335D0000F111F000F111F98012B563C4F832D14
S11335E0922DA989BAA1F90180839183A283B3831F
S11335F0F301E353FD4F20813181428153816EA158
S11336007FA188A599A50E94922D2B013C01A98137
S1133610BA812D913D914D915C916AA57BA58CA5B4
S11336209DA50E94922DA70196010E94742B9B01D7
S1133630AC01C301B2010E94902AA50194010E9429
S1133640922D2B013C01F801E353FD4F60837183FC
S1133650828393830D891E8901501109C0909502BC
S1133660D0909602E0909702F0909802000F111FFC
S1133670000F111FF801EF56FD4F80809180A2804A
S1133680B380ED89FE89EE0FFF1FEE0FFF1FFE8B47
S1133690ED8BEB5AFD4FFA83E9830B5A1D4FD8018A
S11336A02D913D914D915C91C701B6010E94922DDF
S11336B06EA77FA788AB99AB2091590230915A022B
S11336C040915B0250915C02C501B4010E94922DAD
S11336D09B01AC016EA57FA588A999A90E94902A97
S11336E0E981FA8160837183828393832D893E8982
S11336F02F563D4F3A832983A5019401C701B60192
S11337000E94922D6B017C012091590230915A0242
S113371040915B0250915C02D8016D917D918D9135
S11337209C910E94922D9B01AC01C701B6010E949D
S11337308F2AE981FA816083718382839383132DB5
S113374039880AA1E8CCC701B6010E94922D6B0109
S11337507C012D813E814F81588569897A898B89C5
S11337609C890E94922D9B01AC01C701B6010E9465
S11337708F2AA30192010E94922D2AA53BA54CA554
S11337805DA50E94922D9B01AC0128966CAD7DAD88
S11337908EAD9FAD28970E94902A28966CAF7DAF7E
S11337A08EAF9FAF289739CE1EAA1FAA18AE19AEA6
S11337B028961CAE1DAE1EAE1FAE28971AAA1BAAD1
S11337C01CAA1DAA36CE822F90E0880F991F880F5D
S11337D0991FFC01E353FD4F408051806280738048
S11337E0FC01EB56FC4F108121803280038193CC85
S11337F0CF93DF93CBE9D0E01882AAE9B0E01C9222
S1133800EDE9F0E010828881826088838C91886978
S11338108C9380818660808387E6809399001092E0
S11338209800DF91CF910895EF92FF920F931F9329
S1133830CF93DF9380E50E94792A0E947D2A082F86
S113384010E0102F00270E947D2A082BB80180E089
S113385090E00E940D2C20E030E64AE656E40E94F7
S1133860742B609326057093270580932805909305
S113387029050E947D2AC82FD0E0DC2FCC270E9486
S11338807D2AC82BBE0180E090E00E940D2C20E030
S113389030E64AE656E40E94742B60932A0570933E
S11338A02B0580932C0590932D050E947D2AE82EEC
S11338B0F12CFE2CEE240E947D2AE82AB70180E038
S11338C090E00E940D2C20E030E64AE656E40E9487
S11338D0742B60932E0570932F058093300590937D
S11338E03105013385E71807A8F0B801882777FD6B
S11338F08095982F0E940F2C20E030E64AE656E48B
S11339000E94742B609326057093270580932805E5
S113391090932905C13385E7D807A8F0BE0188270D
S113392077FD8095982F0E940F2C20E030E64AE620
S113393056E40E94742B60932A0570932B058093A0
S11339402C0590932D0581E3E81685E7F806A8F089
S1133950B701882777FD8095982F0E940F2C20E0CF
S113396030E64AE656E40E94742B60932E05709369
S11339702F058093300590933105DF91CF911F91EE
S11339800F91FF90EF90089533DF0E94C6100E94BC
S11339900E2A0E94682A80EF8ABB80EE8BBB2FEF31
S11339A082E597E0215080409040E1F700C000009C
S11339B07894109242051092430510924405109297
S11339C0450510924605109247051092480510923D
S11339D049050E94DE07209142053091430540913C
S11339E044055091450560914605709147058091C5
S11339F0480590914905A2E00E94DC2F20934205DE
S1133A003093430540934405509345056093460520
S1133A10709347058093480590934905DACFCF9377
S1133A20DF93FC01EB014081518162817381488302
S1133A3059836A837B8344815581668177814C8372
S1133A405D836E837F8380859185A285B385888716
S1133A509987AA87BB87DF91CF910895DC01FB0189
S1133A6084E04D915D916D917D914193519361936A
S1133A7071938150B1F708954F925F926F927F9244
S1133A808F929F92AF92BF92CF92DF92EF92FF926A
S1133A90FC01608171818281938184809580A680FC
S1133AA0B780C084D184E284F3849B01AC010E947A
S1133AB0922D2B013C01A5019401C501B4010E9482
S1133AC0922D9B01AC01C301B2010E94902A4B01CB
S1133AD05C01A7019601C701B6010E94922D9B01CA
S1133AE0AC01C501B4010E94902AFF90EF90DF90D1
S1133AF0CF90BF90AF909F908F907F906F905F908A
S1133B004F900C944B2E4F925F926F927F928F92B4
S1133B109F92AF92BF92CF92DF92EF92FF92CF9398
S1133B20DF9300D000D0CDB7DEB7FC016081718196
S1133B308281938184809580A680B780C084D1845B
S1133B40E284F38444845584668477849B01AC01C5
S1133B500E94922D69837A838B839C83A5019401AF
S1133B60C501B4010E94922D9B01AC0169817A8147
S1133B708B819C810E94902A4B015C01A7019601D4
S1133B80C701B6010E94922D9B01AC01C501B4018D
S1133B900E94902A6B017C01A3019201C301B2012E
S1133BA00E94922D9B01AC01C701B6010E94902A8C
S1133BB00F900F900F900F90DF91CF91FF90EF90A7
S1133BC0DF90CF90BF90AF909F908F907F906F9039
S1133BD05F904F900C944B2ECF92DF92EF92FF9216
S1133BE00F931F93CF93DF93EC018B01FB01208193
S1133BF0318142815381688179818A819B810E94CC
S1133C00922D6B017C01F801248135814681578115
S1133C106C817D818E819F810E94922D9B01AC01DC
S1133C20C701B6010E94902A6B017C01F80120852E
S1133C30318542855385688579858A859B850E946F
S1133C40922D9B01AC01C701B6010E94902ADF911D
S1133C50CF911F910F91FF90EF90DF90CF90089537
S1133C60DF92EF92FF920F931F93CF93DF937C0128
S1133C708B01EA01D12CF7016191719181919191AC
S1133C807F01F80121913191419151918F010E945D
S1133C90902A6993799389939993D394F3E0DF12EB
S1133CA0EACFDF91CF911F910F91FF90EF90DF90BA
S1133CB008953F924F925F926F927F928F929F925C
S1133CC0AF92BF92CF92DF92EF92FF920F931F9326
S1133CD0CF93DF93382E892E5B017A01C12CD12C2E
S1133CE0F7011082118212821382032D182DE5012F
S1133CF0CC0DDD1D83E0982E412C512C3201F801AE
S1133D0061917191819191918F01288139814A81C9
S1133D105B810E94922D9B01AC01C301B2010E9400
S1133D20902A2B013C01F701608371838283938382
S1133D309A942C969110E3CFF4E0EF0EF11C84E0FA
S1133D40C80ED11CECE0CE16D10451F6DF91CF9110
S1133D501F910F91FF90EF90DF90CF90BF90AF90A5
S1133D609F908F907F906F905F904F903F900895B9
S1133D70AF92BF92CF92DF92EF92FF920F931F9375
S1133D80CF93DF93EC018B015A01FB012085318530
S1133D90428553856C817D818E819F810E94922D05
S1133DA06B017C01F8012481358146815781688546
S1133DB079858A859B850E94922D9B01AC01C70160
S1133DC0B6010E948F2AF5016083718382839383F5
S1133DD0F8012081318142815381688579858A8502
S1133DE09B850E94922D6B017C01F8012085318511
S1133DF042855385688179818A819B810E94922DB5
S1133E009B01AC01C701B6010E948F2AF5016483AE
S1133E10758386839783F801248135814681578190
S1133E20688179818A819B810E94922D6B017C013A
S1133E30F80120813181428153816C817D818E81A1
S1133E409F810E94922D9B01AC01C701B6010E9483
S1133E508F2AF5016087718782879387DF91CF91DD
S1133E601F910F91FF90EF90DF90CF90BF90AF9094
S1133E700895CF92DF92EF92FF92CF93DF93EC01FC
S1133E806A017B019A01AB01688179818A819B81F6
S1133E900E94922D688379838A839B83A70196016C
S1133EA06C817D818E819F810E94922D6C837D83A4
S1133EB08E839F83A7019601688579858A859B8572
S1133EC00E94922D688779878A879B87DF91CF919B
S1133ED0FF90EF90DF90CF900895CF92DF92EF9212
S1133EE0FF921F93CF93DF936A017B01EC0110E0F3
S1133EF0A7019601688179818A819B810E94922D14
S1133F0069937993899399931F5F143089F7DF91AB
S1133F10CF911F91FF90EF90DF90CF900895CF92B3
S1133F20DF92EF92FF92CF93DF93EC01A5DD6B015B
S1133F307C019B01AC01688179818A819B810E940B
S1133F40742B688379838A839B83A70196016C8190
S1133F507D818E819F810E94742B6C837D838E83EF
S1133F609F83A7019601688579858A859B850E9430
S1133F70742B688779878A879B87DF91CF91FF901D
S1133F80EF90DF90CF900895CF92DF92EF92FF925F
S1133F900F931F93CF93DF938C01B5DD6B017C01ED
S1133FA0E80110E0A7019601688179818A819B81EB
S1133FB00E94742B69937993899399931F5F1430AA
S1133FC089F7DF91CF911F910F91FF90EF90DF90D0
S1133FD0CF900895579A08950C941A2A25CCEF92FD
S1133FE0FF920F931F93CF93DF93109201051092CA
S1133FF000056091D3047091D4048091D50490910C
S1134000D60409E614E00E940F2C20E030E048ECCE
S113401052E40E94742BF80160837183828393833A
S11340206091D7047091D8048091D9049091DA04F6
S1134030CDE6D4E00E940F2C20E030E048EC52E4BE
S11340400E94742B688379838A839B836091DB0449
S11340507091DC048091DD049091DE0421E7E22E6E
S113406024E0F22E0E940F2C20E030E048EC52E4D1
S11340700E94742BF7016083718382839383609120
S1134080DF047091E0048091E1049091E2040E94C5
S11340900F2C60935D0470935E0480935F0490938F
S11340A060046091E3047091E4048091E5049091CC
S11340B0E6040E940F2C6093610470936204809361
S11340C06304909364046091E7047091E804809120
S11340D0E9049091EA040E940F2C609365047093A4
S11340E0660480936704909368040E94700BF8013F
S11340F080819181A281B381809385049093860409
S1134100A0938704B093880488819981AA81BB8194
S11341108093890490938A04A0938B04B0938C04B5
S1134120F70180819181A281B38180938D04909362
S11341308E04A0938F04B093900461E974E0C801E5
S11341400E94160D69E774E08DE594E00E94160D57
S11341506091EB047091EC048091ED049091EE0475
S11341600E940F2C20E836E948E15BE40E94742B9E
S113417025E33AEF4EE85CE30E94922D60934A05F2
S113418070934B0580934C0590934D056091EF041B
S11341907091F0048091F1049091F2040E940F2C2C
S11341A020E836E948E15BE40E94742B25E33AEF0A
S11341B04EE85CE30E94922D60934E0570934F0588
S11341C0809350059093510510921301DF91CF9184
S11341D01F910F91FF90EF9008954F925F926F920D
S11341E07F928F929F92AF92BF92CF92DF92EF9283
S11341F0FF920F931F93CF93DF93CDB7DEB76497EE
S11342000FB6F894DEBF0FBECDBF8C0185E894E0F5
S113421033DC2B013C019B01AC010E94922D9B01DC
S1134220AC0161EB7AE186E791E50E94742B6D871E
S11342307E878F87988B20E030E040E450E4C30110
S1134240B2010E94F52D6B017C0120E030E040E8D2
S113425050E4C301B2010E94F52D2B013C01809072
S11342608D0490908E04A0908F04B0909004A501CA
S11342709401C501B4010E94922D28E938E045E07B
S11342805CE30E94922D2AEC3EEF43E156E50E9446
S1134290922DA30192010E94742B698B7A8B8B8BD4
S11342A09C8B20E030E040E85FE36D857E858F8560
S11342B098890E94902A29893A894B895C890E94AD
S11342C08F2A2B013C0121EF39E445EB57ED609136
S11342D085047091860480918704909188040E94DB
S11342E0922DA30192010E94922DA70196010E9492
S11342F0742B69837A838B839C8321EF39E445EBA8
S113430057ED6091890470918A0480918B04909197
S11343108C040E94922D9B01AC01C301B2010E9446
S1134320922DA70196010E94742B6D837E838F8347
S1134330988721EF39E445EB57EDC501B4010E949C
S1134340922D2B013C0120E030E040E450E46D85E7
S11343507E858F8598890E94922D20E030E040E888
S11343605FE30E94902A29893A894B895C890E94DB
S11343708F2A9B01AC01C301B2010E94922DA701B7
S113438096010E94742B69877A878B879C87B80172
S1134390CE0101960E94160D64960FB6F894DEBF06
S11343A00FBECDBFDF91CF911F910F91FF90EF9082
S11343B0DF90CF90BF90AF909F908F907F906F9041
S11343C05F904F9008959F92AF92BF92CF92DF92E9
S11343D0EF92FF920F931F93CF93DF93CDB7DEB786
S11343E068970FB6F894DEBF0FBECDBF4AE0942E97
S11343F0CE0149965C01CE010D96EFDEBE016F5FE2
S11344007F4F89E794E00BDBFE013D967F0109E7CE
S113441014E0F70161917191819191917F012DECEB
S11344203CEC4CE45EE30E94922D9B01AC01F8014C
S113443060817181828193810E94902AF801619345
S11344407193819391938F01EA14FB0411F7CE01C8
S113445001966C0131E9E32E34E0F32E09E714E010
S1134460F80161917191819191918F01F6012191EE
S11344703191419151916F010E94902A20E030E0E6
S113448040E05FE30E94922D2DEC3CEC4CE45EE3B3
S11344900E94922D9B01AC01F701608171818281A0
S11344A093810E94902AF701619371938193919370
S11344B07F01F4E005381F0799F69A9409F09BCF21
S11344C068960FB6F894DEBF0FBECDBFDF91CF91D3
S11344D01F910F91FF90EF90DF90CF90BF90AF901E
S11344E09F9008954F925F926F927F928F929F92C6
S11344F0AF92BF92CF92DF92EF92FF920F931F93EE
S1134500CF93DF93CDB7DEB72C970FB6F894DEBF09
S11345100FBECDBF8C012091CB043091CC044091CF
S1134520CD045091CE046091CF047091D004809159
S1134530D1049091D2040E944A2C20E030EC48EA45
S113454057E40E94742B2BED3FE049EC50E40E94A9
S1134550922D21ED30EA46EB53E40E94742B4B017B
S11345605C010E94412E20E93EE24CEC5EE30E9495
S1134570922D0E94F42A6B017C01C501B4010E94B2
S1134580712B2B013C01C701B6010E94712B4B0119
S11345905C019B01AC01C301B2010E94742BB1D731
S11345A02B013C0120E030E0A901C701B6010E94C3
S11345B0872D87FF09C0A30192016BED7FE089EC91
S11345C090E4ADD72B013C01C301B2010E94712BD1
S11345D09B01AC01C501B4010E94922D69837A83C9
S11345E08B839C83C301B2010E94412E9B01AC01C9
S11345F0C501B4010E94922D6D837E838F839887B9
S1134600C701B6010E94412E69877A878B879C87F0
S11346102DEC3CEC4CEC5DE36091750470917604F8
S113462080917704909178047BD76093750470939C
S1134630760480937704909378049801AE014F5FD9
S11346405F4F69E774E081E994E00E94270E2C969D
S11346500FB6F894DEBF0FBECDBFDF91CF911F918F
S11346600F91FF90EF90DF90CF90BF90AF909F900D
S11346708F907F906F905F904F900895AF92BF920C
S1134680CF92DF92EF92FF920F931F93CF93DF931A
S1134690CDB7DEB7E0970FB6F894DEBF0FBECDBF3F
S11346A05C012091C3043091C4044091C50450912D
S11346B0C6046091C7047091C8048091C9049091A4
S11346C0CA040E944A2C20EC39E940EF5BE40E94C2
S11346D0742B20E030EE4BEF54E422D76B017C01C5
S11346E0BE016B5D7F4F81E994E00E949D0DBE0188
S11346F0675E7F4FCE0185960E94D90E6AE475E00D
S1134700CE0149968CD98E01035F1F4F28E0B70173
S1134710A601CE0149960E941515AE014B5D5F4F6F
S1134720BE01675E7F4FC8010E941110BE016F5F1A
S11347307F4FCE0185960E94160D9501AE014F5F05
S11347405F4F69E774E081E994E00E94270EE096E8
S11347500FB6F894DEBF0FBECDBFDF91CF911F918E
S11347600F91FF90EF90DF90CF90BF90AF9008959E
S11347701F93CF93DF93CEE0D5E010E06991799158
S11347808991999123E333E343ED5FE3A6D787FD52
S11347901F5F85E0C632D80789F781E0163021F023
S11347A0DF91CF911F91089580E0DF91CF911F9108
S11347B008952F923F924F925F926F927F928F92C1
S11347C09F92AF92BF92CF92DF92EF92FF920F939C
S11347D01F93CF93DF93CDB7DEB7CC57D1090FB674
S11347E0F894DEBF0FBECDBF3C018B01E1965FAFF5
S11347F04EAFE19769018EE0E82E85E0F82EB12CEA
S1134800F70161917191819191917F0123E333E3E8
S113481043ED5FE362D787FDB394F6E2EF16F5E06C
S1134820FF0671F726E0B21609F45CC2F601808136
S113483081110DC080919D0490919E0402969093E5
S11348409E0480939D048C32914009F471C280913E
S11348501401811106C0F601108210929E04109278
S11348609D04C0900E05D0900F05E0901005F090C7
S113487011058090120590901305A0901405B09036
S11348801505A5019401C701B6010E94872D1E01DB
S1134890F1E62F0E311C18160CF41EC2B7FAB094B0
S11348A0B7F8B094F10180829182A282B382C09061
S11348B01605D0901705E0901805F0901905809022
S11348C01A0590901B05A0901C05B0901D05A5012C
S11348D09401C701B6010E94872D18160CF422C258
S11348E0B7FAB094B7F8B094F10184829582A682A5
S11348F0B782C0901E05D0901F05E0902005F0906F
S113490021058090220590902305A0902405B09065
S11349102505A5019401C701B6010E94872D18162B
S11349200CF4FAC1B7FAB094B7F8B094F1018086E8
S11349309186A286B386C101F2DA80912605909110
S11349402705A0912805B091290569968CAF9DAFE4
S1134950AEAFBFAF699780912A0590912B05A091C6
S11349602C05B0912D056D968CAF9DAFAEAFBFAF4A
S11349706D9780912E0590912F05A0913005B091EF
S11349803105A1968CAF9DAFAEAFBFAFA197AE017D
S1134990475B5F4FB101CE018B5A9F4FE9D9CE01DE
S11349A0875B9F4FBCDACE01CD96AF969FAF8EAF9B
S11349B0AF97AC01B801C301DBD9CE01CD96AFDA14
S11349C0BE01635C7F4FCE01875B9F4F05D96B01AE
S11349D07C01B301CE018B5A9F4FFED84B015C0181
S11349E0B801C101F9D8E5966CAF7DAF8EAF9FAF2A
S11349F0E59720E030E040E85FE3C701B60190D5D9
S1134A006B017C0126E636E646E65FE3C501B401A8
S1134A100E94922D4B015C0120ED3CEC4CEC5DE3DB
S1134A20E5966CAD7DAD8EAD9FADE5970E94922D60
S1134A309B01AC01C501B40173D59B01AC01C70155
S1134A40B6010E94922D6B017C01AE01475E5F4F5F
S1134A50B301CE018B5A9F4F8BD9AE01435F5F4F99
S1134A60B801C10185D98E01075E1F4FFE013D9635
S1134A705F014E01F5E28F0E911CF8016191719175
S1134A80819191918F0126E636E646E65FE30E9426
S1134A90922D2B013C0120ED3CEC4CEC5DE3F50147
S1134AA060817181828193810E94922D9B01AC016E
S1134AB0C301B20135D5F50161937193819391934B
S1134AC05F0108151905C9F6AE014F5C5F4FBE01C1
S1134AD0635C7F4FCE01875B9F4F4AD9BE01635F02
S1134AE07F4FCE01C19678D8A701960119D56B01E5
S1134AF07C01A801BE01635C7F4FCE01875B9F4FA1
S1134B00AFD8BE01635F7F4FC80166D82B013C015B
S1134B10A7019601C701B6010E94922D4B015C01C9
S1134B20A3019201C301B201FDD79B01AC01C501F0
S1134B30B401F6D40E944B2E4B015C0120E030E01E
S1134B40A901C701B601E3D7A701960118160CF015
S1134B50F3C0C501B401E4D46B017C01A501940147
S1134B60E1D74B015C01BE01635C7F4FCE01875BE3
S1134B709F4F32D820E030E040E85FE3D1D49B017E
S1134B80AC01C501B401CED70E944B2E9B01AC01F0
S1134B90C7D49B01AC0160E070E080E89FE3A4D53A
S1134BA0ED966CAF7DAF8EAF9FAFED97CE01C19602
S1134BB01C01FE013196E396FFAFEEAFE397E99651
S1134BC04CAE5DAE6EAE7FAEE997F10121913191AD
S1134BD0419151911F01F801419051906190719060
S1134BE08F01C701B6019ED74B015C01E9962CAD3C
S1134BF03DAD4EAD5FADE997C301B20193D79B01C3
S1134C00AC01C501B4018CD4E396EEADFFADE397DE
S1134C106193719381939193E396FFAFEEAFE39722
S1134C20AF968EAD9FADAF972816390671F6B101D8
S1134C30CE01875B9F4F0E94EC1D20E030E040E8EE
S1134C405FE36ED49B01AC01C701B6016BD7098148
S1134C501A812B813C81E196EEADFFADE197008393
S1134C601183228333830D811E812F813885048330
S1134C7015832683378309851A852B853C85008710
S1134C801187228733876487758786879787ED9690
S1134C904CAD5DAD6EAD7FADED97CF011ED981E01A
S1134CA080931401C458DF4F0FB6F894DEBF0FBED3
S1134CB0CDBFDF91CF911F910F91FF90EF90DF90C7
S1134CC0CF90BF90AF909F908F907F906F905F90A8
S1134CD04F903F902F900895F101C082D182E282DB
S1134CE0F382E5CDE196EEADFFADE197108211823E
S1134CF012821382148215821682178210861186FC
S1134D001286138680E090E0A0E8BFE3848795874D
S1134D10A687B78780E0C4CFF101C086D186E2863A
S1134D20F38609CEF101C482D582E682F782E1CD11
S1134D3081E0F60180838BCDC501B401F0D3E996FF
S1134D406CAF7DAF8EAF9FAFE997A5019401EAD612
S1134D506B017C01BE01635C7F4FCE01875B9F4F7B
S1134D600E94EC1D20E030E040E85FE3D9D39B01D2
S1134D70AC01C701B601D6D68ED79B01AC01D0D306
S1134D809B01AC0160E070E080E89FE3ADD4ED9658
S1134D906CAF7DAF8EAF9FAFED97FE01F1961F0113
S1134DA0CE010196E3969FAF8EAFE397F101619137
S1134DB07191819191911F01F80181909190A1903D
S1134DC0B1908F01A3019201ADD66B017C01A501C5
S1134DD09401E9966CAD7DAD8EAD9FADE997A2D6F9
S1134DE09B01AC01C701B6019BD3E396EEADFFADC9
S1134DF0E3976193719381939193E396FFAFEEAF41
S1134E00E397AF968EAD9FADAF972816390671F62E
S1134E10B101CE01875B9F4F0E94EC1D20E030E082
S1134E2040E85FE37DD3A30192017CD610CF2F929B
S1134E303F924F925F926F927F928F929F92AF9226
S1134E40BF92CF92DF92EF92FF920F931F93CF9373
S1134E50DF93CDB7DEB7C05DD1090FB6F894DEBFDE
S1134E600FBECDBFC353DF4F8883CD5CD040C25348
S1134E70DF4F9883CE5CD040C153DF4F6883CF5C53
S1134E80D040C053DF4F7883C05DD0407C010BEA33
S1134E9014E09E0123593F4F6901AE0143585F4F0F
S1134EA01A01D7018D909D90AD90BD907D01F801C0
S1134EB041905190619071908F01A3019201C501BD
S1134EC0B4012DD320E030E040E05FE32BD6D101E4
S1134ED06D937D938D939D931D01A3019201C50153
S1134EE0B4011ED320E030E040E05FE31BD6F601BE
S1134EF061937193819391936F01F4E00B3B1F07CE
S1134F0081F69E0127563F4FCE018B559F4F4DE7AB
S1134F1050E04C0F5D1F445F5F4FDE01A359BF4F4C
S1134F20FE01E358FF4F7C01B901CD0101911191BC
S1134F3021913191DB010D931D932D933D93BD017F
S1134F40DC010D911D912D913D91CD01D7010D9362
S1134F501D932D933D937D01E417F50739F7ED96E5
S1134F602CAD3DAD4EAD5FADED97C954DF4F2883F9
S1134F7039834A835B83C75BD0401DA21EA21FA254
S1134F8018A6C355DF4F88809980AA80BB80CD5A6C
S1134F90D04020E030E040E050ECC501B401C2D57F
S1134FA069A77AA78BA79CA7C755DF4FC880D9806C
S1134FB0EA80FB80C95AD040A7019601C701B60117
S1134FC0AFD26DA77EA78FA798ABA5019401C501A9
S1134FD0B401A6D269AB7AAB8BAB9CAB1DAA1EAA5B
S1134FE01FAA18AEAE014B555F4FFA018191919102
S1134FF0A191B191CB53DF4FF983E883C55CD040D5
S1135000CF53DF4F88839983AA83BB83C15CD0408D
S113501020E030E040E050ECBC01CD0183D569AF25
S11350207AAF8BAF9CAF20E030E040E050ECC7019A
S1135030B60178D521966CAF7DAF8EAF9FAF219727
S1135040CF53DF4F288139814A815B81C15CD040D5
S1135050CA01B90165D225966CAF7DAF8EAF9FAF03
S1135060259729961CAE1DAE1EAE1FAE2997C954B6
S1135070DF4F288139814A815B81C75BD040CA01F7
S1135080B9014ED22B013C0169837A838B839C83C3
S11350901D821E821F82188619861A861B861C860C
S11350A01D861E861F86188A698B7A8B8B8B9C8B38
S11350B01D8A1E8A1F8A188E198E1A8E1B8E1C8EAC
S11350C01D8E1E8E1F8E18A269A37AA38BA39CA388
S11350D09E012F5F3F4FC554DF4F39832883CB5B3D
S11350E0D040AE014B5D5F4FC354DF4F59834883BB
S11350F0CD5BD040CE01875B9F4FC154DF4F998376
S11351008883CF5BD040CB53DF4FA881B981C55C86
S1135110D040C553DF4FB983A883CB5CD040CF5375
S1135120DF4F688179818A819B81C15CD04023E013
S1135130222E812C912C5401022DC953DF4F488219
S113514059826A827B82C75CD0409B01AC01E8D162
S11351502B013C01CB53DF4F28813981C55CD04002
S1135160CD54DF4F39832883C35BD040C354DF4F12
S113517048815981CD5BD0404C5F5F4FCB54DF4FAA
S113518059834883C55BD040C554DF4F88819981DA
S1135190CB5BD0400496CF54DF4F99838883C15BA7
S11351A0D040C154DF4F28803980CF5BD040CF53EB
S11351B0DF4FC880D980EA80FB80C15CD04013E017
S11351C0C953DF4F688179818A819B81C75CD04054
S11351D0A5019401A4D14B015C01A7019601C3016F
S11351E0B201A0D4C954DF4F288139814A815B813F
S11351F0C75BD04079D29B01AC01C501B40190D109
S1135200D1016D937D938D939C9313971150BCE0C2
S11352102B0E311C112389F1CF54DF4FE881F98122
S1135220C15BD0406191719181919191CF54DF4FD5
S1135230F983E883C15BD040CB54DF4FA881B981A7
S1135240C55BD0402D913D914D915D91CB54DF4F85
S1135250B983A883C55BD040CD54DF4FE881F98181
S1135260C35BD040C190D190E190F190CD54DF4F19
S1135270F983E883C35BD040ADCF0150C554DF4F01
S1135280E881F981CB5BD0403C96C554DF4FF9836C
S1135290E883CB5BD040C354DF4F28813981CD5B99
S11352A0D040245F3F4FC354DF4F39832883CD5B05
S11352B0D040C154DF4F48815981CF5BD0404C5F0F
S11352C05F4FC154DF4F59834883CF5BD0400023E5
S11352D039F1C553DF4FA881B981CB5CD0406D91C2
S11352E07D918D919D91C553DF4FB983A883CB5C8C
S11352F0D0402081318142815381C953DF4F2883BB
S113530039834A835B83C75CD040C354DF4FE88151
S1135310F981CD5BD04080809180A280B38015CF8D
S1135320AE0143575F4FBE01675B7F4FCE01875687
S11353309F4F0E94591E8E0103571F4F9FE9C92E8C
S113534094E0D92EC153DF4FE880CF5CD040C053E6
S1135350DF4FF880C05DD04018019CE0290E311C5D
S1135360D8016D917D918D919D918D01F6014190B2
S11353705190619071906F0128E031E244E05DE367
S1135380D1D34B015C0120EF3DEB47E75FE3C30161
S1135390B201C8D39B01AC01C501B401C1D0D7018E
S11353A06D937D938D939D937D0102151305C1F635
S11353B06BEA74E0C353DF4F8881CD5CD040C253A5
S11353C0DF4F9881CE5CD0400E942E1D6FE974E0BF
S11353D0C153DF4F8881CF5CD040C053DF4F9881E9
S11353E0C05DD0400E940F1DC053DF4F0FB6F8942C
S11353F0DEBF0FBECDBFDF91CF911F910F91FF9004
S1135400EF90DF90CF90BF90AF909F908F907F9060
S11354106F905F904F903F902F90089517BA86E059
S113542087BB87B3816387BB88B3816388BB83E50C
S11354308DB90895EF92FF920F931F93CF93DF934B
S113544000E010E05AD0E801CC0FDD1FCD52DB4F55
S113545098AB8FA78FA598A9982F882798AB8FA76B
S11354608FA598A9882798AB8FA7EFA4F8A845D053
S11354708E299F2998AB8FA70F5F1F4F0630110508
S113548009F7C0E0D0E0FE01EE0FFF1FED52FB4F25
S113549067A570A980E090E0C0D123E333E343E53E
S11354A05BE340D3FE01EE0FFF1FEE0FFF1FE1523F
S11354B0FB4F67A770AB81AB92AB2196C630D10589
S11354C011F7DF91CF911F910F91FF90EF90089505
S11354D01BB81AB8E5E9F0E01082599A8AB18861DC
S11354E08AB980818E60808387E689B910929000A2
S11354F008955D9BFECF8CB908955F9BFECF8CB160
S113550008959F939F7704D20F9000203AF4905807
S1135510A2EA2AED3FE049E450E413D0ADC250586A
S1135520BB27AA270ED0A8C271D230F076D220F0C1
S113553031F49F3F11F41EF430C20EF4E095E7FB02
S113554026C2E92FBBD280F3BA1762077307840718
S1135550950718F071F49EF5D3C20EF4E0950B2E66
S1135560BA2FA02D0B01B90190010C01CA01A001B1
S11355701124FF27591B99F0593F50F4503E68F10C
S11355801A16F040A22F232F342F4427585FF3CF4D
S1135590469537952795A795F0405395C9F77EF41E
S11355A01F16BA0B620B730B840BBAF09150A1F067
S11355B0FF0FBB1F661F771F881FC2F70EC0BA0FED
S11355C0621F731F841F48F4879577956795B79575
S11355D0F7959E3F08F0B3CF9395880F08F099276D
S11355E0EE0F9795879508959F939F77EEE38937FC
S11355F09E0720F4ECE8F0E0F8D109C089D1905876
S1135600A2EA2AED3FE049EC5FE39BDF35D20F903D
S113561007FC90580895FAD158F080E891E009F415
S11356209EEFFBD128F040E851E059F45EEF09C049
S1135630B4C166C2E92FE07841D268F3092E052A85
S1135640C1F3261737074807590738F00E2E07F815
S1135650E02569F0E025E0640AC0EF6307F80094F0
S113566007FADB01B9019D01DC01CA01AD01EF9329
S11356704AD002D20AD05F91552331F02BED3FE09E
S113568049E450FD49EC4CCF0895DF93DD27B92F51
S1135690BF7740E85FE31616170648075B0710F468
S11356A0D92F39D29F938F937F936F9332D3E0EAAC
S11356B0F0E076D1E1D12F913F914F915F913ED2AD
S11356C0DD2349F09058A2EA2AED3FE049EC5FE37C
S11356D0D0785D2736DFDF91CFC135D108F481E082
S11356E00895A3D1E395D9C10CD0C6C196D140F099
S11356F08DD130F021F45F3F19F049C1511101C23D
S11357004CC1DCD198F39923C9F35523B1F3951B0C
S1135710550BBB27AA2762177307840738F09F5FCE
S11357205F4F220F331F441FAA1FA9F333D00E2E3D
S11357303AF0E0E830D091505040E695001CCAF7AA
S113574029D0FE2F27D0660F771F881FBB1F26176F
S113575037074807AB07B0E809F0BB0B802DBF0142
S1135760FF2793585F4F2AF09E3F510568F00FC101
S1135770C8C15F3FECF3983EDCF386957795679557
S1135780B795F7959F5FC9F7880F911D96958795F3
S113579097F90895E1E0660F771F881FBB1F621712
S11357A073078407BA0720F0621B730B840BBA0BD0
S11357B0EE1F88F7E095089504D06894B111A1C153
S11357C0089584D188F09F5790F0B92F9927B75145
S11357D0A0F0D1F0660F771F881F991F1AF0BA95B1
S11357E0C9F712C0B13081F08BD1B1E0089588C1FE
S11357F0672F782F8827B85F39F0B93FCCF38695A7
S113580077956795B395D9F73EF490958095709503
S113581061957F4F8F4F9F4F0895E89409C097FB80
S11358203EF490958095709561957F4F8F4F9F4F73
S11358309923A9F0F92F96E9BB279395F6958795B7
S113584077956795B795F111F8CFFAF4BB0F11F47A
S113585060FF1BC06F5F7F4F8F4F9F4F16C0882321
S113586011F096E911C0772321F09EE8872F762F57
S113587005C0662371F096E8862F70E060E02AF098
S11358809A95660F771F881FDAF7880F9695879584
S113589097F90895E894F92F96EBFF2381F01216F7
S11358A013061406440B9395F6958795779567959B
S11358B057954040FF23B9F71BC0992708958823C3
S11358C051F49850D2F7872B762F652F542F432FFE
S11358D0322F20E0B1F3121613061406440B88236A
S11358E03AF09A95440F551F661F771F881FCAF711
S11358F055234AF4440F551F11F460FF04C06F5F31
S11359007F4F8F4F9F4F880F9695879597F90895EE
S1135910DF93CF931F930F938B01EC01EDECF0E039
S11359203FD0AAD09801AE018B01EC0160E070E099
S113593080E89FE3F4DDAFD19801AE010F911F9190
S1135940CF91DF91FBC0990F0008550FAA0BE0E837
S1135950FEEF16161706E807F907C0F0121613062D
S1135960E407F50798F0621B730B840B950B39F46D
S11359700A2661F0232B242B252B21F408950A26D3
S113598009F4A140A6958FEF811D811D089597F913
S11359909F6780E870E060E008959FEF80EC0895D1
S11359A0DF93CF931F930F93FF92EF92DF927B01CC
S11359B08C01689405C0DA2EEF01C0D0FE01E89492
S11359C0A5912591359145915591AEF3EF01B9DD3E
S11359D0FE019701A801DA9479F7DF90EF90FF9028
S11359E00F911F91CF91DF9108959F938F937F9390
S11359F06F93FF93EF939B01AC0194D0EF91FF91D0
S1135A00CFDF2F913F914F915F918CC000240A9476
S1135A101616170618060906089500240A94121685
S1135A201306140605060895B8CF50D0E8F3E89499
S1135A30E0E0BB279F57F0F02AED3FE049EC06C0B9
S1135A40EE0FBB0F661F771F881F28F0B23A62075C
S1135A507307840728F0B25A620B730B840BE39527
S1135A609A9572F7803830F49A95BB0F661F771FAA
S1135A70881FD2F7904883C1092E0394000C11F4B7
S1135A80882352F0BB0F40F4BF2B11F460FF04C015
S1135A906F5F7F4F8F4F9F4F0895EF93E0FF06C0D6
S1135AA0A2EA2AED3FE049EC5FEB4BDDE5DF0F9026
S1135AB0039401FC9058E5EFF0E097CF57FD905820
S1135AC0440F551F59F05F3F71F04795880F97FBBE
S1135AD0991F61F09F3F79F0879508951216130678
S1135AE01406551FF2CF4695F1DF08C016161706A7
S1135AF01806991FF1CF86957105610508940895DC
S1135B00E894BB2766277727CB0197F908951BDF15
S1135B1008F48FEF08959B01AC0160E070E080E829
S1135B209FE3E2CD0BD0A8CF71DF28F076DF18F029
S1135B30952309F02CCF31CF1124E3CFBFDFA0F39D
S1135B40959FD1F3950F50E0551F629FF001729F0E
S1135B50BB27F00DB11D639FAA27F00DB11DAA1F2D
S1135B60649F6627B00DA11D661F829F2227B00D7A
S1135B70A11D621F739FB00DA11D621F839FA00D05
S1135B80611D221F749F3327A00D611D231F849F55
S1135B90600D211D822F762F6A2F11249F575040AC
S1135BA08AF0E1F088234AF0EE0FFF1FBB1F661F47
S1135BB0771F881F91505040A9F79E3F510570F000
S1135BC0E6CE9FCF5F3FECF3983EDCF38695779566
S1135BD06795B795F795E7959F5FC1F7FE2B880FFB
S1135BE0911D9695879597F90895FA01EE0FFF1F79
S1135BF030962105310599F16115710561F48038FC
S1135C00BFE39B0749F168949038810561F08038BF
S1135C10BFEF9B0741F0992342F5FF3FE1053105B2
S1135C20210511F1E8940894E795D901AA2329F4F0
S1135C30AB2FBE2FF85FD0F310C0FF5F70F4A695B2
S1135C40E0F7F73950F019F0FF3A38F49F779F9353
S1135C500CD00F9007FC905808953EF09ECE60E063
S1135C6070E080E89FE308954FE79F775F934F9339
S1135C703F932F93D2D02F913F914F915F9152DF59
S1135C8050C09F93D2DE0F9007FCEE5F06CF11F455
S1135C900EF483CE72C01ADFD0F39923D9F3CEF376
S1135CA09F57550B87FF77D00024A0E640EA900168
S1135CB080585695979528F4805C660F771F881F47
S1135CC020F026173707480730F4621B730B840B48
S1135CD0202931294A2BA69517940794202531258C
S1135CE04A2758F7660F771F881F20F026173707B3
