S01000006E6F6D696E616C322E73726563F4
S1130000DAC30000F7C30000F5C30000F3C3000027
S1130010F1C30000EFC30000EDC30000EBC3000018
S1130020E9C30000E7C30000E5C30000E3C3000028
S1130030E1C30000DFC30000DDC30000DBC3000038
S1130040D9C30000D7C300000C94670FD3C30000CA
S1130050D1C30000CFC30000CDC30000CBC3000058
S1130060C9C30000C7C30000C5C30000C3C3000068
S1130070C1C30000BFC300000C94441ABBC30000FA
S1130080B9C30000B7C30000B5C30000036EDB367C
S11300903D9A9999993DABAAAA2A3E000000803F57
S11300A0084AD73B3BCE016E84BCBFFDC12F3D6CDB
S11300B074319ABD56833DDA3D00C77F11BED9E441
S11300C0BB4C3E916BAAAABE000000803F072C7A6D
S11300D0A5BA6CC590DA3B9365FC8BBC53F810FD54
S11300E03C5692834DBD879D3AB63DCBC9BF5BBE9E
S11300F073DA0FC93F05A84CCDB2D44EB93836A92E
S1130100020C50B9918688083CA6AAAA2ABE00000F
S113011000803F07634236B79BD8A71A3968561840
S1130120AEBAAB558C1D3CB7CC5763BD6DEDFD75B8
S11301303EF6177231BF000000803F08000000BE89
S1130140922449123EABAAAA2ABECDCCCC4C3E0086
S1130150000080BEABAAAAAA3E00000000BF0000B7
S113016000803F0000000000084178D3BB4387D1E2
S1130170133D190E3CC3BD4282AD2B3E68EC827622
S1130180BED98FE1A93E4C80EFFFBE01C4FF7F3F83
S113019000000000000000000000CDCC2441CDCCC4
S11301A09041CDCCD4C133330BC1333353C033333B
S11301B0DBC1666606409A9961C19A99594000006C
S11301C0B0C033330341333333BFCDCCCCBE9A9963
S11301D021C16666E63F333333BFCDCC4C3E666601
S11301E0A6BF9A9911C19A99A940333383409A9929
S11301F039409A9989C06666A6C0CDCC4CBE000031
S1130200003F9A99193F6666A6BF9A99D93FCDCC0B
S1130210CCBD9A9999BF3333B33F9A9959409A996F
S11302207940000000009A9999BECDCCCCBD000065
S11302300000333333BF666606C066660640333358
S113024033BF9A9999BFCDCC4C3E9A99993E666634
S1130250663FCDCCCC3F0000803F9A99993ECDCCEF
S11302604CBECDCC4C3F000000BFCDCCCC3E66662E
S1130270A63FCDCC4CBECDCCCC3D9A9999BE9A9993
S113028019BF9A9919BFCDCC4CBFCDCCCC3DCDCCA8
S11302904C3ECDCC4CBECDCC4C3E000000009A99D7
S11302A099BE9A9919BF9A99993E0000003FCDCC06
S11302B0CC3DCDCC4CBE0000003FCDCCCC3ECDCC13
S11302C04CBECDCCCC3D9A9999BECDCCCCBE9A999E
S11302D0993E9A99993E0000000000000000000039
S11302E0000000000000000000000000000000000A
S11302F000000000000000000000000000000000FA
S113030000000000000000000000000000000000E9
S113031000000000000000000000000000000000D9
S113032000000000000000000000000000000000C9
S113033000000000000000000000000000000000B9
S113034000000000000000000000000000000000A9
S11303500000000000000000000000000000000099
S11303600000000000000000000000000000000089
S11303700000000000000000000000000000000079
S11303800000000000000000000000000000000069
S11303900000000000000000000000000000000059
S11303A00000000000000000000000000000000049
S11303B00000000000000000000000000000000039
S11303C00000000000000000000000000000000029
S11303D00000000000000000000000000000000019
S11303E00000000000000000000000000000000009
S11303F000000000000000000000000000000000F9
S113040000000000000000000000000000000000E8
S113041000000000000000000000000000000000D8
S113042000000000000000000000000000000000C8
S113043000000000000000000000000000000000B8
S113044000000000000000000000000000000000A8
S11304500000000000000000000000000000000098
S11304600000000000000000000000000000000088
S11304700000000000000000000000000000000078
S11304800000000000000000000000000000000068
S11304900000000000000000000000000000000058
S11304A0000000000000000000000004E6C600A0F8
S11304B0BBC4CDE895459AD118C5664E3C459AD93A
S11304C031C56696D1449A7920C466D6A844CD0431
S11304D013C59A99E6C23333994466E6744300809F
S11304E011449A9906C466E66244CD6C4B4466A6F0
S11304F08D43CDCCF04233B33CC33373A7C366E61C
S11305003443CDCC8C4200C0A4C39A9968C3CD0CAB
S1130510B44333333D42666640430000454366E6D8
S11305200CC39A99EEC200801DC30000804133338E
S113053083406666C84200008C42666687426666EF
S1130540A6C166669142CDCC044266E601C39A997F
S11305506B423333E7C1666685C2333353419A999C
S1130560E940CDCC8DC266667A423333A34233333D
S113057098C2666658C29A99D9C000009CC13333A8
S11305804F426666B640000070413333C34166662D
S113059016419A995940333333C03333DBC19A99A6
S11305A0D940CDCC0CC09A99C141CDCC0C419A997B
S11305B02141333387C1666692C1CDCC4CC0CDCCCA
S11305C05441CDCCA4C19A9969C1666656419A99A1
S11305D0814133333B416666B64066667EC19A9973
S11305E011C1000000C066660640CDCCAC40CDCC45
S11305F00C41CDCCACC166664640CDCC2C413333E6
S113060053C0CDCC3C413333333F9A99D9C0CDCC80
S113061054C1CDCCDCC0CDCCCCBD9A99F940333398
S11306200B410000803F9A9911C1000080C0000076
S113063028C1666606413333F3BF9A99C9C0CDCC4D
S11306404C40CDCCCC3DCDCCCCBE0000003F3333B0
S11306509340000000BFCDCC8C406666E63FCDCC15
S1130660FCC0333333BF9A9919BF66660640666689
S113067086C09A991940333333C06666E6BF9A99A7
S113068099BF666666C033330BC166664640000098
S1130690C0BFCDCCCCBD333313C00000004000003C
S11306A00040333333BFCDCC4CBFCDCC8CBF9A99F3
S11306B0193FCDCC4C3F333333BFCDCC4CBECDCC26
S11306C04C3ECDCC0CC09A99D93F3333B3BFCDCC7B
S11306D04CBE000020C0CDCCCC3E000000C00000C9
S11306E060409A9919C03333F3BFCDCC4CBECDCC06
S11306F08CBFCDCCCC3ECDCCCC3E9A99993F3333F4
S1130700F33FCDCC4CBFCDCC0CC06666663F9A9906
S1130710993ECDCCCC3D3333333F0000003FCDCCAC
S1130720CCBD9A9999BE9A99993ECDCCCCBECDCCEC
S11307304C3ECDCC4C3E666666BF666666BFCDCC8D
S1130740CCBD000000003333333F00000000666678
S113075066BF666666BFCDCCCC3ECDCCCC3E000039
S1130760003FCDCCCC3F000000BF000000BF000024
S1130770803F9A9999BFCDCC4CBECDCCCCBDCDCCCD
S11307804C3FCDCCCC3ECDCCCCBDCDCCCCBD9A99C0
S1130790993ECDCCCC3ECDCCCC3D0000003F0000FA
S11307A0003F9A9999BECDCCCCBECDCCCCBE9A9903
S11307B099BECDCC4CBF11241FBECFEFD0E1DEBF1C
S11307C0CDBF11E0A0E0B1E0E4E5FEE500E00BBF41
S11307D002C007900D92A03EB107D9F725E0A0EE24
S11307E0B1E001C01D92A436B207E1F70E94E61AF7
S11307F00C94282F05CC3F924F925F926F927F9278
S11308008F929F92AF92BF92CF92DF92EF92FF921C
S11308100F931F93CF93DF93CDB7DEB76C970FB6CB
S1130820F894DEBF0FBECDBF9C8F8B8FC090340574
S1130830D0903505E0903605F0903705C092490216
S1130840D0924A02E0924B02F0924C028091380519
S113085090913905A0913A05B0913B0580934D02E2
S113086090934E02A0934F02B093500280913C05A6
S113087090913D05A0913E05B0913F0580935102B2
S113088090935202A0935302B093540280910C01AE
S113089081119CC080EEA82E81E0B82E8E010F5FDE
S11308A01F4FCE010D964C01EDE4F2E0FA8FE98F73
S11308B0312CF50141905190619071905F01A30139
S11308C09201C701B6010E94972920E030E040E080
S11308D05FE30E94952CF801619371938193919346
S11308E08F01A7019601C301B2010E94982920E05B
S11308F030E040E05FE30E94952CF4016193719332
S1130900819391934F013394F3E03F1649F0E98DBD
S1130910FA8DC190D190E190F190FA8FE98FC9CF0F
S1130920CE010D960E945E1B9B01AC0160E070E05D
S113093080E89FEB0E947C2A6B017C019B01AC0147
S113094069817A818B819C810E94952CEB8DFC8D31
S11309506083718382839383A70196016D817E8175
S11309608F8198850E94952CEB8DFC8D6483758313
S113097086839783A701960169857A858B859C85F3
S11309800E94952CEB8DFC8D6087718782879387FD
S113099060EE71E089E492E00E94311B6C960FB620
S11309A0F894DEBF0FBECDBFDF91CF911F910F91A1
S11309B0FF90EF90DF90CF90BF90AF909F908F907B
S11309C07F906F905F904F903F90089560EE71E03C
S11309D089E492E00E94311B10920C01DFCF2F9228
S11309E03F924F925F926F927F928F929F92AF92BB
S11309F0BF92CF92DF92EF92FF920F931F93CF9308
S1130A00DF93CDB7DEB7AC970FB6F894DEBF0FBE59
S1130A10CDBF9CA78BA7609134057091350580915B
S1130A2036059091370520E030E44CE156E40E940D
S1130A307C2A6093490270934A0280934B029093FC
S1130A404C02609138057091390580913A05909176
S1130A503B0520E030E44CE156E40E947C2A60939C
S1130A604D0270934E0280934F0290935002609116
S1130A703C0570913D0580913E0590913F0520E035
S1130A8030E44CE156E40E947C2A60935102709356
S1130A905202809353029093540289E492E00E949C
S1130AA05E1B2B013C0180902D0290902E02A090A1
S1130AB02F02B090300291E2E92E92E0F92E01E388
S1130AC012E0CE0101966C01F7016191719181915F
S1130AD091917F019B01AC010E949829A501940189
S1130AE00E94952CF60161937193819391936F0108
S1130AF09B01AC010E9498299B01AC01F801608123
S1130B007181828193810E949829F8016193719384
S1130B10819391938F01FDE2EF16F2E0FF06A1F6B7
S1130B20A3019201C301B2010E94952C6FA378A77F
S1130B3089A79AA78CEE91E09EA38DA300E010E014
S1130B401801EDE3F2E0F88BEF87C1018B5E9E4F55
S1130B509E878D87F101E75CFE4FFA8BE98B81E379
S1130B6092E09C8B8B8BF101E35AFE4FFE8BED8B55
S1130B70CE010196988F8F8B13E0812C912C540118
S1130B80EF89F88D6191719181919191F88FEF8B3B
S1130B90ED89FE892191319141915191FE8BED8B2B
S1130BA0EB89FC89C190D190E190F190FC8BEB8BA7
S1130BB0C98EDA8EEB8EFC8EE989FA8941905190C8
S1130BC061907190FA8BE98BEF85F889C190D1908F
S1130BD0E190F190F88BEF87CD8EDE8EEF8EF8A248
S1130BE0ED85FE85C190D190E190F190FE87ED876F
S1130BF0C9A2DAA2EBA2FCA20E94952C6B017C0193
S1130C00A3019201698D7A8D8B8D9C8D0E94952C08
S1130C109B01AC01C701B6010E9498296B017C01BC
S1130C2029A13AA14BA15CA16D8D7E8D8F8D98A1D8
S1130C300E94952C9B01AC01C701B6010E94982922
S1130C409B01AC01C501B4010E9498294B015C01D0
S1130C50115009F095CF2FA138A549A55AA50E9496
S1130C607C2AEDA1FEA16193719381939193FEA3DC
S1130C70EDA3FCE02F0E311C84E22816310409F0A8
S1130C8060CF4BA55CA569E472E08CEE91E00E9414
S1130C90DA1C6091200270E080E090E00E94102B4A
S1130CA0AB01BC018BA59CA5AC960FB6F894DEBF36
S1130CB00FBECDBFDF91CF911F910F91FF90EF90A9
S1130CC0DF90CF90BF90AF909F908F907F906F9068
S1130CD05F904F903F902F900C945B1D2F923F920A
S1130CE04F925F926F927F928F929F92AF92BF9238
S1130CF0CF92DF92EF92FF920F931F93CF93DF93E4
S1130D00CDB7DEB7E0970FB6F894DEBF0FBECDBF08
S1130D100E94101ECE0185966EDD8091340590915F
S1130D203505A0913605B09137058093490290931B
S1130D304A02A0934B02B0934C02809138059091E3
S1130D403905A0913A05B0913B0580934D029093EB
S1130D504E02A0934F02B093500280913C059091B3
S1130D603D05A0913E05B0913F05809351029093BB
S1130D705202A0935302B09354028091FC019091CB
S1130D80FD01029709F49AC280911301813009F49C
S1130D909CC22091D2043091D3044091D404509148
S1130DA0D5046091D6047091D7048091D8049091B1
S1130DB0D904A2E00E94DF2E2093D2043093D304FE
S1130DC04093D4045093D5046093D6047093D7040D
S1130DD08093D8049093D9042091CA043091CB0411
S1130DE04091CC045091CD046091CE047091CF0415
S1130DF08091D0049091D1040E94DF2E2093CA04E4
S1130E003093CB044093CC045093CD046093CE0430
S1130E107093CF048093D0049093D1040E940E1E4B
S1130E200E94DE2180932002809113018F3F09F4F8
S1130E3043C00E940520CE010D960E949420CE014D
S1130E4001960E9463212FE132E041E252E0BE01AB
S1130E50635F7F4FCE0101960E940022809320029F
S1130E606DE372E081E292E00E94472560912002E6
S1130E7080911F02689FB0011124882777FD809517
S1130E80982F0E94122BAB01BC018DE392E00E94CB
S1130E905B1D8DE392E00E945E1B6093C604709319
S1130EA0C7048093C8049093C90481E292E00E942D
S1130EB0E61DCE01499693DD809112028A350CF429
S1130EC0E3C08BE58093120210912002113009F4E3
S1130ED0A7C010921102109210026091FA01709151
S1130EE0FB016E5F7F4F7093FB016093FA018827CB
S1130EF077FD8095982F0E94122B6B017C0120E0D6
S1130F0030E046E153E46091040170910501809161
S1130F100601909107010E9497299B01AC01C7012A
S1130F20B6010E948A2C18160CF493C01092FD018D
S1130F301092FC01C090C604D090C704E090C8048D
S1130F40F090C9042FE632E143E85BE3C701B60140
S1130F500E94752A87FF08C080911F02189FC00154
S1130F601124019709F49CC12FE632E143E05CE3CC
S1130F70C701B6010E948A2C18166CF480911B02DA
S1130F8090911C02019690931C0280931B02109274
S1130F901E0210921D022090500530905105409081
S1130FA052055090530560905405709055058090FB
S1130FB05605909057059101A201B301C4012F3C3D
S1130FC0374041055105610571058105910509F019
S1130FD008F446C08091120218160CF057C1809193
S1130FE01201843009F474C1813009F41AC1E09605
S1130FF00FB6F894DEBF0FBECDBFDF91CF911F9126
S11310000F91FF90EF90DF90CF90BF90AF909F90A3
S11310108F907F906F905F904F903F902F900895A6
S11310208091F8019091F90102969093F9018093CF
S1131030F8011092FB011092FA0162EB72E00E9437
S1131040832E9093110280931002883592400CF401
S11310506DCF82E090E09093FD018093FC016ACF14
S113106084E08093120110921302109214021092E1
S11310701502109216021092170210921802109282
S1131080190210921A02B3CFCE0185960E945E1BFC
S11310906B017C0160930C0270930D0280930E022D
S11310A090930F0210912002612F70E080E090E095
S11310B00E94122B9B01AC01C701B6010E94952C22
S11310C06B017C01609308027093090280930A0209
S11310D090930B0220E030E0A9010E94752A882336
S11310E009F463C0A0900801B090090182E0A81639
S11310F0B10409F418C1B5016150710980E090E0B0
S11311000E94102B209104023091050240910602A6
S1131110509107020E94952C9B01AC01C701B601B6
S11311200E9498296B017C01B50180E090E00E9447
S1131130102B9B01AC01C701B6010E947C2A6B01F4
S1131140AB01BC0140930002509301026093020280
S1131150709303027C01EFEFAE1ABE0AB09209014C
S1131160A092080120E030E0A901B6010E94752A8E
S1131170882349F12AE037ED43E25DE3B601C70174
S11311800E94752A87FF2EC06091FE017091FF01B5
S11311906E5F7F4F7093FF016093FE0180E090E0EB
S11311A00E94102B9B01AC0124C082E090E090933C
S11311B0090180930801109200021092010210921A
S11311C002021092030220E030E0A90160910402BF
S11311D07091050280910602909107020E94752A7F
S11311E08111D2CF1092FF011092FE0120E030E075
S11311F0A901609100017091010180910201909117
S113120003010E94752A87FF44C082E090E0909316
S1131210FD018093FC01809112028E5F8093120283
S113122089CEE0910A01F0910B01A0911B02B091CB
S11312301C02EA17FB072CF52091130230911402CB
S11312404091150250911602609117027091180294
S11312508091190290911A02205F384D4F4F5F4FD1
S11312606F4F7F4F8F4F9F4F59016A017B018C0154
S11312709101A201B301C4010E94F42E11F008F0FF
S11312804AC010921E0210921D02B1CE809112012A
S1131290ABCE1092FD011092FC01109212024ACEC4
S11312A080911D0290911E02019690931E028093DC
S11312B01D0210921C0210921B026DCE0E940C1E85
S11312C080911301813009F064CD0E94111EA6CDD6
S11312D0A0911D02B0911E02E0910A01F0910B0150
S11312E0EA17FB07DCF481E08093120120921302D9
S11312F03092140240921502509216026092170224
S1131300709218028092190290921A0210921E0290
S113131010921D028ACF84E08093120110921C0265
S113132010921B0264CEA7019601C701B6010E9468
S1131330982920E030E040E05FE30E94952CFFCE46
S11313402F923F924F925F926F927F928F929F92D1
S1131350AF92BF92CF92DF92EF92FF920F931F93BF
S1131360CF93DF93CDB7DEB729970FB6F894DEBFDE
S11313700FBECDBFE0910705A0910605AD83B091E6
S11313800505BF8320900A0530900B05910140E0CC
S113139050E060E070E080E090E003E00E94BD2E49
S11313A0F22F3A834B8359876E83B72FA82F9887E0
S11313B00E94BD2E59016A017B018C012F2F3A81B5
S11313C04B8159856E817B2F8A2F98850E94D62E5A
S11313D05101C12CD12CE12CF12C00E010E00E9431
S11313E0D62E59016A017B01F82F192F04E00E94BF
S11313F0BD2E0F2F0E94EB2E59016A017B01F82F9D
S1131400192F04E00E94BD2E0F2F0E94EB2E5901CC
S11314106A017B01F82F192F04E00E94BD2E0F2FC3
S11314200E94EB2E07E00E94BD2E59016A017B0148
S11314308C01F0910805F887A0910905A250AB3002
S113144008F01BC1B0E0AA0FBB1FAA0FBB1FAA0F55
S1131450BB1FAF57BE4F5C9011964C9011971296DC
S11314603C90129713962C90139714962C911497E2
S1131470298315968C9115978A831696FC91169755
S1131480FB8317962C912E832E2F30E040E050E002
S113149060E070E080E090E020583C4544495B4CBB
S11314A06E407109810991090E94D62E39014A01C1
S11314B06C83B72FA82FF92F2F8130E040E050E044
S11314C060E070E080E090E004E00E94BD2EAF8018
S11314D0B12CC12CD12CE12CF12C00E010E00E94A5
S11314E0EB2E59016A017B01E82F192F04E00E94B9
S11314F0BD2E0E2F0E94EB2E04E00E94BD2E59013A
S11315006A017B018C019301A4016C817B2F8A2FDA
S11315109F2F0E94D62EB22EC32ED42E652E762E49
S1131520872E982E9C83AD816A2F70E080E090E036
S11315302CE330E040E050E00E94962EA22EA32F30
S1131540F42FE52F7B018C012B2D3C2D4D2D562D99
S1131550672D782D892D9C81BA2ECF2EDE2E0E94E8
S1131560D62E39014A01B62F7C83F82FE92F28851E
S113157030E040E050E060E070E080E090E0AFEF09
S11315800E94DF2EA52CB42CC32CD22CE980FA8027
S11315900B811E810E94D62E59016A017B01A82F5E
S11315A0192F02E00E94BD2E0A2F0E94EB2E590132
S11315B06A017B01A82F192F04E00E94BD2E0A2F77
S11315C00E94EB2E59016A017B01A82F192F04E018
S11315D00E94BD2E0A2F0E94EB2E07E00E94BD2E12
S11315E059016A017B018C019301A4016B2F7C8159
S11315F08F2F9E2F0E94D62E2093CA043093CB04A3
S11316004093CC045093CD046093CE047093CF04E4
S11316108093D0049093D1042C5E34414846510900
S113162061097109810991092093D2043093D3048B
S11316304093D4045093D5046093D6047093D70494
S11316408093D8049093D90429960FB6F894DEBFFA
S11316500FBECDBFDF91CF911F910F91FF90EF90FF
S1131660DF90CF90BF90AF909F908F907F906F90BE
S11316705F904F903F902F900895512C412C312C26
S1131680212C19821A821B821E82FECE4F925F92F7
S11316906F927F92AF92BF92CF92DF92EF92FF92BE
S11316A00F931F93CF93DF93CDB7DEB7A4970FB6F5
S11316B0F894DEBF0FBECDBF8C015B012091D20434
S11316C03091D3044091D4045091D5046091D60450
S11316D07091D7048091D8049091D9040E944D2B25
S11316E027EB39E540E85FE30E94952C2EEB37EFBA
S11316F048E958E30E94952C2B013C010E94792A69
S11317006B017C0169837A838B839C83C301B2015F
S11317100E94442D6D837E838F83988719861A8651
S11317201B861C86DC01CB01B0588D879E87AF8752
S1131730B88BC98ADA8AEB8AFC8A1D8A1E8A1F8AB8
S1131740188E198E1A8E1B8E1C8E1D8E1E8E1F8E49
S113175018A280E090E0A0E8BFE389A39AA3ABA31A
S1131760BCA3A501BE016F5F7F4FC8010E947B1C13
S1131770A4960FB6F894DEBF0FBECDBFDF91CF9114
S11317801F910F91FF90EF90DF90CF90BF90AF909B
S11317907F906F905F904F9008954F925F926F92F9
S11317A07F92AF92BF92CF92DF92EF92FF920F930C
S11317B01F93CF93DF93CDB7DEB7A4970FB6F894FA
S11317C0DEBF0FBECDBF8C015B012091D2043091EE
S11317D0D3044091D4045091D5046091D6047091FF
S11317E0D7048091D8049091D9040E944D2B27EB03
S11317F039E540E85FE30E94952C2EEB37EF48E98A
S113180058E30E94952C2B013C010E94792A6B011C
S11318107C0169837A838B839C83C301B2010E9418
S1131820442D2B013C0177FA709477F870944D8223
S11318305E826F82788619861A861B861C866D875F
S11318407E878F87988BC98ADA8AEB8AFC8A1D8AFD
S11318501E8A1F8A188E198E1A8E1B8E1C8E1D8E40
S11318601E8E1F8E18A280E090E0A0E8BFE389A33B
S11318709AA3ABA3BCA3A501BE016F5F7F4FC801B0
S11318800E947B1CA4960FB6F894DEBF0FBECDBF9A
S1131890DF91CF911F910F91FF90EF90DF90CF9048
S11318A0BF90AF907F906F905F904F900895CF92CC
S11318B0DF92EF92FF920F931F93CF93DF93CDB7F5
S11318C0DEB7C854D1090FB6F894DEBF0FBECDBF42
S11318D08C01CB017A016901AE014F5C5F4FB80105
S11318E00E94DA1CCE01C1960E94B11DF8018081CC
S11318F09181A281B381B0588DA39EA3AFA3B8A751
S11319004481558166817781705849A75AA76BA78E
S11319107CA780859185A285B385B0588DA79EA7A5
S1131920AFA7B8ABCE0185960E94B11DAE01435C52
S11319305F4FBE016B5D7F4FCE01C1960E94DA1CE2
S1131940CE01CD960E94B11D21968CAD9DADAEAD5C
S1131950BFAD219789839A83AB83BC8389A99AA954
S1131960ABA9BCA98D839E83AF83B8878DA19EA1AB
S1131970AFA1B8A589879A87AB87BC8725968CAD1C
S11319809DADAEADBFAD25978D879E87AF87B88BD4
S11319908DA99EA9AFA9B8AD898B9A8BAB8BBC8B53
S11319A089A59AA5ABA5BCA58D8B9E8BAF8BB88F53
S11319B029968CAD9DADAEADBFAD2997898F9A8F19
S11319C0AB8FBC8F89AD9AADABADBCAD8D8F9E8F07
S11319D0AF8FB8A30DA51EA52FA538A909A31AA3D7
S11319E02BA33CA3A601BE016F5F7F4FC7010E94DA
S11319F07B1CC85BDF4F0FB6F894DEBF0FBECDBFB4
S1131A00DF91CF911F910F91FF90EF90DF90CF90D6
S1131A1008952F923F924F925F926F927F928F928E
S1131A209F92AF92BF92CF92DF92EF92FF921F9359
S1131A30CF93DF93CDB7DEB760970FB6F894DEBFD0
S1131A400FBECDBF1B01DC018D909D90AD90BC906D
S1131A5013971496CD90DD90ED90FC9017971896FF
S1131A608D919D910D90BC91A02D8D839E83AF830C
S1131A70B887A5019401C701B6010E94222A6D8787
S1131A807E878F87988BA5019401C501B4010E94BC
S1131A90952C4B015C01A7019601C701B6010E9478
S1131AA0952C9B01AC01C501B4010E9498290E94A8
S1131AB04E2D69877A878B879C8725E434E24FE72C
S1131AC05FE30E94952C9B01AC016D817E818F8127
S1131AD098850E94222A4B015C0115E0C501B401DE
S1131AE00E94792A20E030E040E450E40E94F82C7F
S1131AF06B017C01C501B4010E94442D20E030E05B
S1131B0040E450E40E94F82C4B015C012EEA39ECCD
S1131B1046E257E4C701B6010E94952C9B01AC0133
S1131B2069857A858B859C850E9497296B017C0148
S1131B3022E539E547E257E4C501B4010E94952C3A
S1131B402D813E814F8158850E949829A7019601D5
S1131B500E94222A6B017C010E94792A69837A837C
S1131B608B839C83C701B6010E94442D2B013C0149
S1131B7025E434E24FE75FE30E94952C29813A8102
S1131B804B815C810E94222A4B015C01115009F0B7
S1131B90A5CF2AE83CE54BED5BE3C301B2010E940B
S1131BA0952CA30192010E94952C9B01AC0160E04D
S1131BB070E080E89FE30E9497290E944E2D9B01CC
S1131BC0AC0162E375EA82EC9AE40E947C2A4B0140
S1131BD05C01F101C082D182E282F3828D859E850F
S1131BE0AF85B88984839583A683B78329813A8195
S1131BF04B815C8169857A858B859C850E94952CB7
S1131C006B017C012AE83CE54BED5BE3C501B401C3
S1131C100E94952CA30192010E94952C2D813E8156
S1131C204F8158850E949829A30192010E94952C06
S1131C309B01AC01C701B6010E949829A50194013A
S1131C400E949729D10118966D937D938D939C934F
S1131C501B9760960FB6F894DEBF0FBECDBFDF9121
S1131C60CF911F91FF90EF90DF90CF90BF90AF90F6
S1131C709F908F907F906F905F904F903F902F90A8
S1131C8008952F923F924F925F926F927F928F921C
S1131C909F92AF92BF92CF92DF92EF92FF920F93F7
S1131CA01F93CF93DF93CDB7DEB7AC970FB6F894FD
S1131CB0DEBF0FBECDBF1C017B018A01DB014D904D
S1131CC05D906D907C90C301B2010E94792A6DA34E
S1131CD07EA38FA398A7F701C480D580E680F78000
S1131CE0C701B6010E94792A4B015C01C301B2010C
S1131CF00E94442D2B013C01C701B6010E94442DD2
S1131D006B017C0177FA709477F870948DA19EA191
S1131D10AFA1B8A5B05889A79AA7ABA7BCA7A5013E
S1131D209401C301B2010E94952C69837A838B8349
S1131D309C83A3019201C701B6010E94952C6D8377
S1131D407E838F8398878DA19EA1AFA1B8A5898733
S1131D509A87AB87BC87D701C601B0588D879E8709
S1131D60AF87B88B898A9A8AAB8ABC8A1D8A1E8AF5
S1131D701F8A188EA501940169A57AA58BA59CA537
S1131D800E94952C698F7A8F8B8F9C8F29A53AA5F9
S1131D904BA55CA5C701B6010E94952C6D8F7E8F63
S1131DA08F8F98A349A25AA26BA27CA2A801BE015C
S1131DB06F5F7F4FC1010E947B1CAC960FB6F894F5
S1131DC0DEBF0FBECDBFDF91CF911F910F91FF906A
S1131DD0EF90DF90CF90BF90AF909F908F907F90C7
S1131DE06F905F904F903F902F9008951BB81AB852
S1131DF0E5E9F0E01082599A8AB188698AB980814C
S1131E008E60808387E689B91092900081E090E02B
S1131E10A0E0B0E08093E1049093E204A093E30493
S1131E20B093E4048093E5049093E604A093E7045C
S1131E30B093E8048093E9049093EA04A093EB043C
S1131E40B093EC048093ED049093EE04A093EF041C
S1131E50B093F0048093F1049093F204A093F304FC
S1131E60B093F4048093F5049093F604A093F704DC
S1131E70B093F8048093F9049093FA04A093FB04BC
S1131E80B093FC048093FD049093FE04A093FF049C
S1131E90B09300058093010590930205A093030578
S1131EA0B093040580930505809306058093070588
S1131EB0809308058093090581E090E090930B05D9
S1131EC080930A0590930D0580930C0508951F9245
S1131ED00F920FB60F9211242F938F939F93AF936A
S1131EE0BF938BB390EF89278BBB8CB18093560241
S1131EF08091570290915802A0915902B0915A02D0
S1131F00BA2FA92F982F88278093570290935802AD
S1131F10A0935902B0935A028091570290915802AB
S1131F20A0915902B0915A02882780935702909346
S1131F305802A0935902B0935A02209156028091FC
S1131F40570290915802A0915902B0915A02822BE3
S1131F508093570290935802A0935902B0935A0267
S1131F60809111018C3008F049C0809111018430B6
S1131F7008F0D4C18091E1049091E204A091E304BB
S1131F80B091E404892F9A2FAB2FBB27A7FDBA95F4
S1131F908093E1049093E204A093E304B093E404F7
S1131FA08091E1049091E204A091E304B091E404EF
S1131FB0BB278093E1049093E204A093E304B093DD
S1131FC0E4048091E1049091E204A091E304B091CF
S1131FD0E40420915602B22B8093E1049093E2042E
S1131FE0A093E304B093E404809111018F5F809384
S1131FF01101809111018C3009F42DC280911001DE
S11320008C3008F049C080911001843008F041C13F
S11320108091ED049091EE04A091EF04B091F0044E
S1132020892F9A2FAB2FBB27A7FDBA958093ED0478
S11320309093EE04A093EF04B093F0048091ED0428
S11320409091EE04A091EF04B091F004BB2780932B
S1132050ED049093EE04A093EF04B093F004809108
S1132060ED049091EE04A091EF04B091F00420915E
S11320705602B22B8093ED049093EE04A093EF04E8
S1132080B093F004809110018F5F809310018091D0
S113209010018C3009F4E3C180910F01843060F5A4
S11320A080910F018230F0F080910C0590910D0524
S11320B0892F992790930D0580930C0580910C0529
S11320C090910D05992790930D0580930C058091AF
S11320D00C0590910D0520915602922B90930D05BD
S11320E080930C0580910F018F5F80930F01809185
S11320F00F01843009F4ABC180910E01803178F472
S113210080910E01843008F04EC180910E018F5FE2
S113211080930E0180910E01803109F494C1809165
S11321200D01873090F480910D0181117AC0809166
S113213056028093050580910D018F5F80930D01F8
S113214080910D01873009F48EC1809157029091DE
S11321505802A0915902B0915A028C3A9440AF436C
S1132160BF4309F465C18091570290915802A09130
S11321705902B0915A028C3A9540AF43BF4309F4D7
S11321805CC18091570290915802A0915902B0917C
S11321905A028C3A9B40AF43BF4309F451C180912A
S11321A0570290915802A0915902B0915A028C3A68
S11321B09E40AF43BF4309F416C2809157029091E9
S11321C05802A0915902B0915A028C3A9F40AF43F1
S11321D0BF4309F400C280910C0590910D058091D4
S11321E055028823A1F081E08093130157988FEF63
S11321F09FEF90930D0580930C0510925502109259
S11322005702109258021092590210925A02BF912A
S1132210AF919F918F912F910F900FBE0F901F90B0
S1132220189580910D01813009F4D8C180910D0178
S1132230823009F41BC280910D01833009F41BC262
S113224080910D01843009F41BC280910D01853009
S113225008F471CF80910A0590910B05892F992775
S113226090930B0580930A0580910A0590910B05C4
S1132270992790930B0580930A0580910A05909104
S11322800B0520915602922B90930B0580930A051F
S113229052CF80911001883008F4ECC08091100175
S11322A08C3008F0EFCE8091F5049091F604A09163
S11322B0F704B091F804892F9A2FAB2FBB27A7FD01
S11322C0BA958093F5049093F604A093F704B09321
S11322D0F8048091F5049091F604A091F704B0916C
S11322E0F804BB278093F5049093F604A093F704B5
S11322F0B093F8048091F5049091F604A091F7044A
S1132300B091F80420915602B22B8093F504909377
S1132310F604A093F704B093F804B4CE80911101AD
S1132320883008F41DC1809111018C3008F05CCE16
S11323308091E9049091EA04A091EB04B091EC043B
S1132340892F9A2FAB2FBB27A7FDBA958093E90459
S11323509093EA04A093EB04B093EC048091E90415
S11323609091EA04A091EB04B091EC04BB27809314
S1132370E9049093EA04A093EB04B093EC048091F5
S1132380E9049091EA04A091EB04B091EC0420914B
S11323905602B22B8093E9049093EA04A093EB04D1
S11323A0B093EC0421CE80910E01883008F49DC0D6
S11323B080910E018C3008F019C18091FD04909138
S11323C0FE04A091FF04B0910005892F9A2FAB2F32
S11323D0BB27A7FDBA958093FD049093FE04A093B8
S11323E0FF04B09300058091FD049091FE04A09138
S11323F0FF04B0910005BB278093FD049093FE0475
S1132400A093FF04B09300058091FD049091FE0415
S1132410A091FF04B091000520915602B22B809345
S1132420FD049093FE04A093FF04B09300056DCEC9
S11324301092550210921101CECE10921001CBCE03
S113244010920F01C8CE8FEF80930E0168CE8FEFEC
S113245080930F0151CE8FEF80931101CFCD8FEF79
S11324608093100119CE8FEF80930D0181E080934A
S113247055026BCE8091F1049091F204A091F30483
S1132480B091F404892F9A2FAB2FBB27A7FDBA95DF
S11324908093F1049093F204A093F304B093F404B2
S11324A08091F1049091F204A091F304B091F404AA
S11324B0BB278093F1049093F204A093F304B093A8
S11324C0F4048091F1049091F204A091F304B0918A
S11324D0F40420915602B22B8093F1049093F204F9
S11324E0A093F304B093F404CDCD8091F9049091BA
S11324F0FA04A091FB04B091FC04892F9A2FAB2F0E
S1132500BB27A7FDBA958093F9049093FA04A0938E
S1132510FB04B093FC048091F9049091FA04A09117
S1132520FB04B091FC04BB278093F9049093FA0454
S1132530A093FB04B093FC048091F9049091FA04F5
S1132540A091FB04B091FC0420915602B22B80931D
S1132550F9049093FA04A093FB04B093FC04D5CD42
S11325608091E5049091E604A091E704B091E80419
S1132570892F9A2FAB2FBB27A7FDBA958093E5042B
S11325809093E604A093E704B093E8048091E504F3
S11325909091E604A091E704B091E804BB278093EE
S11325A0E5049093E604A093E704B093E8048091D3
S11325B0E5049091E604A091E704B091E804209129
S11325C05602B22B8093E5049093E604A093E704AB
S11325D0B093E80409CD10920D01FDCD809156020F
S11325E080930605A8CD10920E01F5CD80910E01C1
S11325F0803108F08ACD8091010590910205A09167
S11326000305B0910405892F9A2FAB2FBB27A7FD93
S1132610BA958093010590930205A0930305B093A6
S113262004058091010590910205A0910305B091E4
S11326300405BB278093010590930205A09303052D
S1132640B09304058091010590910205A0910305C2
S1132650B091040520915602B22B8093010590930A
S11326600205A0930305B09304054FCD8091560253
S11326708093070560CD80915602809308055BCD59
S1132680809156028093090556CD2F923F924F9226
S11326905F926F927F928F929F92AF92BF92CF92EE
S11326A0DF92EF92FF920F931F93CF93DF93CDB7F7
S11326B0DEB7C755D1090FB6F894DEBF0FBECDBF44
S11326C0FC0149875A876B877C87322E66961FAF39
S11326D00EAF669780809180A280B380C480D5803D
S11326E0E680F78020E030E04AE754E460857185B5
S11326F0828593850E947C2A6D877E878F87988B3D
S1132700C501B4010E94442D2B013C01C501B40153
S11327100E94792A6D837E838F83988720E030EE30
S11327204BEF54E469857A858B859C850E949729B3
S113273023966CAF7DAF8EAF9FAF2397C701B601D1
S11327400E94792A60939B0270939C0280939D025D
S113275090939E02C701B6010E94442D60935F02CC
S11327607093600280936102909362022EE23FE2D2
S11327704BE15CE46D817E818F8198850E94952C6C
S11327802D813E814F8158850E94952C4B015C011F
S11327902BE335E24AE15CE4C301B2010E94952CCB
S11327A0A30192010E94952C6B017C019B01AC0159
S11327B0C501B4010E949829698F7A8F8B8F9C8FF1
S11327C00E944E2D69877A878B879C879B01AC0179
S11327D00E9498292D853E854F8558890E94982905
S11327E02D853E854F8558890E94952C6D8F7E8F4F
S11327F08F8F98A32EE23FE24BE15CE4C501B40164
S11328000E94952C4B015C012BE335E24AE15CE428
S1132810C701B6010E94952C9B01AC01C501B4010E
S11328200E949829298D3A8D4B8D5C8D0E947C2ABB
S11328309B01AC016D8D7E8D8F8D98A10E9498298E
S11328400E944E2D4B015C0129853A854B855C85A0
S11328506D857E858F8598890E949829A5019401AC
S11328600E947C2A60966CAF7DAF8EAF9FAF60975D
S113287020E839EF44E858E4C301B2010E94952CE2
S11328802D813E814F8158850E94952C6B017C01DE
S1132890A501940169857A858B859C850E94952C78
S11328A09B01AC01C701B6010E947C2A64966CAFFF
S11328B07DAF8EAF9FAF649760962CAD3DAD4EADAE
S11328C05FAD6097C301B2010E94952C6B017C013E
S11328D064962CAD3DAD4EAD5FAD64976D817E8148
S11328E08F8198850E94952C9B01AC01C701B6018C
S11328F00E9497296AA77BA78CA79DA760962CADF9
S11329003DAD4EAD5FAD60976D817E818F819885C1
S11329100E94952C6B017C0164962CAD3DAD4EADAF
S11329205FAD6497C301B2010E94952C9B01AC0179
S1132930C701B6010E9498296EA37FA388A799A70F
S11329402AA53BA54CA55DA5CA01B9010E949829F9
S113295060939F037093A0038093A1039093A203B9
S11329602EA13FA148A559A5CA01B9010E949829E1
S11329706093A3037093A4038093A5039093A60389
S113298020E030E040E950E46AA57BA58CA59DA534
S11329900E94952C2AA53BA54CA55DA50E94952CCB
S11329A020E030E040EC5FE30E9497296093A703A6
S11329B07093A8038093A9039093AA0321EE36E4AD
S11329C046EA50E46EA17FA188A599A50E94952CA2
S11329D02AA53BA54CA55DA50E94952C6093AB034D
S11329E07093AC038093AD039093AE038EA19FA12B
S11329F0A8A5B9A5B0588093D7029093D802A09304
S1132A00D902B093DA022AA53BA54CA55DA5209373
S1132A10DB023093DC024093DD025093DE0220E0BF
S1132A2030E040E450EC6EA17FA188A599A50E94F6
S1132A30952C2AA53BA54CA55DA50E94952C6093D9
S1132A40DF027093E0028093E1029093E2022AA5F0
S1132A503BA54CA55DA5CA01B9010E94952C6B014B
S1132A607C012EA13FA148A559A5CA01B9010E9424
S1132A70952C9B01AC01C701B6010E94972927ED53
S1132A8033EB4DED5FE30E94952C6093E30270936A
S1132A90E4028093E5029093E602A50194016AE9B9
S1132AA079E187EC95E40E947C2A2C966CAF7DAF8B
S1132AB08EAF9FAF2C97432D50E09A012D5F3F4F6F
S1132AC0429FC001439F900D529F900D11249595F4
S1132AD0879524968FAF2497882309F495C4198E7B
S1132AE031E039871D8641E049A351E05D8F1BAE7B
S1132AF01CAE1DAE1EAE1EAA1FAA18AE19AE289695
S1132B001CAE1DAE1EAE1FAE28971AAA1BAA1CAA85
S1132B101DAA93C18D83A82FAF5FA9A32985253052
S1132B2008F481C43D814D85341709F429C3FD811E
S1132B30FF9F80011124298D229FB0011124601B65
S1132B40710B882777FD8095982F0E94122B0E9485
S1132B504E2D4B015C01398D632F70E080E090E0D5
S1132B600E94122B2B013C0120E030E040E85FE39F
S1132B700E94972969837A838B839C839B01AC0190
S1132B800E94952C6B017C01B801882777FD809504
S1132B90982F0E94122B9B01AC01C701B6010E9421
S1132BA097290E944E2DA50194010E947C2A6B0155
S1132BB07C01A3019201C301B2010E94982920E083
S1132BC030E040E85FE30E949729A50194010E9448
S1132BD07C2A6AA37BA38CA39DA34985242F30E080
S1132BE05D85852F90E03A8B298B1901281A390AC3
S1132BF0D101A81BB90B11966896BFAFAEAF689709
S1132C0020E030E040E85FE3C301B2010E9498296C
S1132C104B015C012AA53BA54CA55DA56AA17BA13E
S1132C208CA19DA10E94952C220C331C220C331CD8
S1132C30F101E556FC4FFFA7EEA7208131814281C7
S1132C4053810E94952CA30192010E947C2A6D8BD2
S1132C507E8B8F8B988F68962EAD3FAD6897220F31
S1132C60331F220F331F68963FAF2EAF6897F901C9
S1132C70E556FC4F2081318142815381C701B60161
S1132C800E94952C29813A814B815C810E947C2A87
S1132C909B01AC016D897E898F89988D0E9497294B
S1132CA09B01AC01C501B4010E94952C162F7D8BAC
S1132CB08AAF092F49895A89440F551F440F551F5C
S1132CC05A8349839A0125563C4F862F972FAAADE4
S1132CD0B02FF90180839183A283B383F101ED5274
S1132CE0FD4F20813181428153816AA57BA58CA54A
S1132CF09DA50E94952C4B015C01AEA5BFA52D910D
S1132D003D914D915C916EA17FA188A599A50E94EA
S1132D10952CA30192010E947C2A9B01AC01C50160
S1132D20B4010E9497292AA13BA14CA15DA10E9454
S1132D30952C4B015C016896EEADFFAD6897ED52A2
S1132D40FD4F2081318142815381C701B6010E9428
S1132D50952C9B01AC01C501B4010E9497292B015C
S1132D603C01E981FA81ED52FD4F608371838283D6
S1132D7093832D883AACBD8DAB2EB12CF501EE0FAB
S1132D80FF1FEE0FFF1FEA55FB4FC590D590E5904E
S1132D90F490F501EE0FFF1FEE0FFF1FEA56FE4FF2
S1132DA0259135914591549123966CAD7DAD8EADB1
S1132DB09FAD23970E94952C9B01AC01C701B601DE
S1132DC00E9498292BAD3CAD4DAD5EAD0E94952C73
S1132DD06B017C01ED81E11156C0A30192010E94B7
S1132DE0952C9B01AC016AA97BA98CA99DA90E9481
S1132DF098296AAB7BAB8CAB9DAB212F322D432D35
S1132E00502FC701B6010E94952C9B01AC016EA9FD
S1132E107FA988AD99AD0E9497296EAB7FAB88AF2F
S1132E2099AFFD8DFF5FFD8F39853F5F398724960C
S1132E304FAD2497431708F42CC189A19D85981799
S1132E4008F068CEBD85BF5FBD876B2F70E06E5FF5
S1132E507F4F882777FD8095982F0E94122B9B0126
S1132E60AC012C966CAD7DAD8EAD9FAD2C970E94C0
S1132E70F82C6BAF7CAF8DAF9EAFED85E98FF1E0A1
S1132E80F9A31D824BCEC5010196FC01EE0FFF1F75
S1132E90EE0FFF1FEA55FB4F85909590A590B490D7
S1132EA0FC01EE0FFF1FEE0FFF1FEA56FE4F2591A8
S1132EB035914591549123966CAD7DAD8EAD9FAD0A
S1132EC023970E94952C9B01AC01C501B4010E947B
S1132ED098292BAD3CAD4DAD5EAD0E94952C698B10
S1132EE07A8B8B8B9C8B3D81232F30E03E8B2D8BFB
S1132EF0C901880F991F880F991FFC01E956FD4FDE
S1132F0020813181428153812D833E834F835887B1
S1132F109C01255A3D4FD9018D919D910D90BC91F5
S1132F20A02D89839A83AB83BC83A70196016D810D
S1132F307E818F8198850E94952C4B015C012989A3
S1132F403A894B895C8969817A818B819C810E9451
S1132F50952C9B01AC01C501B4010E9498294B0139
S1132F605C01A30192010E94952C9B01AC016AA90A
S1132F707BA98CA99DA90E9498296AAB7BAB8CABD9
S1132F809DAB212F322D432D502FC501B4010E943A
S1132F90952C9B01AC016EA97FA988AD99AD0E94C7
S1132FA097296EAB7FAB88AF99AF20E030E0A901E1
S1132FB06EA17FA188A599A50E948A2C29813A81B6
S1132FC04B815C8118160CF0EEC1C701B6010E945A
S1132FD0952C6B017C012D813E814F815885698937
S1132FE07A898B899C890E94952C9B01AC01C7012D
S1132FF0B6010E9497296B017C01ED89FE89BF010E
S1133000882777FD8095982F0E94122B9B01AC0195
S1133010C701B6010E94952C212F322D432D502F2C
S11330200E94952C6B017C01F98D6F2F70E080E07C
S113303090E00E94122B20E030E040E85FE30E9421
S113304098292EA13FA148A559A50E94952C9B0122
S1133050AC01C701B6010E947C2A9B01AC012896F1
S11330606CAD7DAD8EAD9FAD28970E9498292896B2
S11330706CAF7DAF8EAF9FAF28972D8D2E5F2D8FB8
S113308039853F5F398724964FAD2497431708F05D
S1133090D4CE60962CAD3DAD4EAD5FAD60976EA9BC
S11330A07FA988AD99AD0E94952C6B017C01609637
S11330B02CAD3DAD4EAD5FAD60976AA97BA98CA9DF
S11330C09DA90E94952C4B015C0164962CAD3DADED
S11330D04EAD5FAD64976EA97FA988AD99AD0E948E
S11330E0952C9B01AC01C501B4010E9498296696F8
S11330F0AEADBFAD66976D937D938D939C931397FF
S113310028962CAD3DAD4EAD5FAD289714962D930A
S11331103D934D935C93179764962CAD3DAD4EADA6
S11331205FAD64976AA97BA98CA99DA90E94952C7F
S11331309B01AC01C701B6010E9497296696EEADCA
S1133140FFAD66976087718782879387C95ADF4F7F
S11331500FB6F894DEBF0FBECDBFDF91CF911F91A4
S11331600F91FF90EF90DF90CF90BF90AF909F9022
S11331708F907F906F905F904F903F902F90089525
S1133180832F90E09E8B8D8BBC01882777FD8095E3
S1133190982F0E94122B6B017C019B01AC0160E013
S11331A070E080E09FE30E947C2A9B01AC0160E018
S11331B070E080E89FE30E9497290E944E2D4B0106
S11331C05C01A9850A2F10E03801ED89FE896E1A89
S11331D07F0AF1E06F1A7108A701960160E070E0C0
S11331E080E89FE30E947C2A20E030E040E85FE32F
S11331F00E949829A50194010E94952C2EA13FA11B
S113320048A559A50E94952C660C771C660C771C62
S1133210930125563C4F3A832983D9012D913D9141
S11332204D915C910E94952C362E272E898B9AA362
S1133230000F111F000F111F980125563C4F832DBD
S1133240922DA989BAA1F90180839183A283B383C2
S1133250F301ED52FD4F20813181428153816EA1F2
S11332607FA188A599A50E94952C2B013C01A981D9
S1133270BA812D913D914D915C916AA57BA58CA558
S11332809DA50E94952CA70196010E947C2A9B0172
S1133290AC01C301B2010E949829A50194010E94C6
S11332A0952C2B013C01F801ED52FD4F6083718395
S11332B0828393830D891E8901501109C0909B025A
S11332C0D0909C02E0909D02F0909E02000F111F8E
S11332D0000F111FF801E956FD4F80809180A280F4
S11332E0B380ED89FE89EE0FFF1FEE0FFF1FFE8BEB
S11332F0ED8BE55AFD4FFA83E983055A1D4FD8013A
S11333002D913D914D915C91C701B6010E94952C80
S11333106EA77FA788AB99AB20915F0230916002C2
S11333204091610250916202C501B4010E94952C42
S11333309B01AC016EA57FA588A999A90E94982933
S1133340E981FA8160837183828393832D893E8925
S113335029563D4F3A832983A5019401C701B6013B
S11333600E94952C6B017C0120915F0230916002D8
S11333704091610250916202D8016D917D918D91CD
S11333809C910E94952C9B01AC01C701B6010E943F
S11333909729E981FA816083718382839383132D52
S11333A039880AA1E8CCC701B6010E94952C6B01AB
S11333B07C012D813E814F81588569897A898B8969
S11333C09C890E94952C9B01AC01C701B6010E9407
S11333D09729A30192010E94952C2AA53BA54CA5EF
S11333E05DA50E94952C9B01AC0128966CAD7DAD2A
S11333F08EAD9FAD28970E94982928966CAF7DAF1B
S11334008EAF9FAF289739CE1EAA1FAA18AE19AE49
S113341028961CAE1DAE1EAE1FAE28971AAA1BAA74
S11334201CAA1DAA36CE822F90E0880F991F880F00
S1133430991FFC01ED52FD4F4080518062807380E2
S1133440FC01E556FC4F108121803280038193CC2E
S1133450CF93DF93CBE9D0E01882AAE9B0E01C92C5
S1133460EDE9F0E010828881826088838C9188691C
S11334708C9380818660808387E680939900109284
S11334809800DF91CF9108951F920F920FB60F927B
S113349011240BB60F920F931F932F933F934F93C7
S11334A05F936F937F938F939F93AF93BF93CF93C8
S11334B0DF93EF93FF938091630490919C00E82F36
S11334C0F0E0E652FB4F90838F5F8730C9F0809322
S11334D06304FF91EF91DF91CF91BF91AF919F91E1
S11334E08F917F916F915F914F913F912F911F9198
S11334F00F910F900BBE0F900FBE0F901F90189559
S1133500109263046091DA0470E0762F66270091CC
S1133510DC0410E0102F00278091DD04082BC091FB
S1133520DE04D0E0DC2FCC278091DF04C82B80910F
S1133530DB04682B882777FD8095982F0E94122B37
S113354020E030E64AE656E40E947C2A6093340583
S1133550709335058093360590933705B801882715
S113356077FD8095982F0E94122B20E030E64AE6E2
S113357056E40E947C2A6093380570933905809341
S11335803A0590933B05BE01882777FD8095982FD7
S11335900E94122B20E030E64AE656E40E947C2A80
S11335A060933C0570933D0580933E0590933F05E1
S11335B090CFEAEDF1E09AE280919B0085FFFCCF89
S11335C090939C0091919111F7CF089541DF0E944F
S11335D0F60E0E943E280E94742980EF8ABB80EE7A
S11335E08BBB2FEF82E597E0215080409040E1F7BC
S11335F000C000007894109250051092510510926A
S113360052051092530510925405109255051092CC
S11336105605109257050E946E0620915005309170
S11336205105409152055091530560915405709194
S113363055058091560590915705A2E00E94DF2E12
S113364020935005309351054093520550935305F0
S113365060935405709355058093560590935705D0
S1133660DACFCF93DF93FC01EB014081518162817A
S11336707381488359836A837B834481558166813E
S113368077814C835D836E837F8380859185A2855A
S1133690B38588879987AA87BB87DF91CF910895DF
S11336A0DC01FB0184E04D915D916D917D9141932D
S11336B05193619371938150B1F708954F925F9242
S11336C06F927F928F929F92AF92BF92CF92DF922E
S11336D0EF92FF92FC0160817181828193818480E9
S11336E09580A680B780C084D184E284F3849B0152
S11336F0AC010E94952C2B013C01A5019401C5014C
S1133700B4010E94952C9B01AC01C301B2010E943B
S113371098294B015C01A7019601C701B6010E94DB
S1133720952C9B01AC01C501B4010E949829FF901E
S1133730EF90DF90CF90BF90AF909F908F907F904D
S11337406F905F904F900C944E2D4F925F926F92BA
S11337507F928F929F92AF92BF92CF92DF92EF921D
S1133760FF92CF93DF9300D000D0CDB7DEB7FC013A
S1133770608171818281938184809580A680B780E5
S1133780C084D184E284F384448455846684778439
S11337909B01AC010E94952C69837A838B839C8363
S11337A0A5019401C501B4010E94952C9B01AC01B3
S11337B069817A818B819C810E9498294B015C01EB
S11337C0A7019601C701B6010E94952C9B01AC018B
S11337D0C501B4010E9498296B017C01A3019201E7
S11337E0C301B2010E94952C9B01AC01C701B60133
S11337F00E9498290F900F900F900F90DF91CF9116
S1133800FF90EF90DF90CF90BF90AF909F908F90FC
S11338107F906F905F904F900C944E2DCF92DF92DB
S1133820EF92FF920F931F93CF93DF93EC018B01E1
S1133830FB012081318142815381688179818A81B0
S11338409B810E94952C6B017C01F80124813581B8
S1133850468157816C817D818E819F810E94952C48
S11338609B01AC01C701B6010E9498296B017C0140
S1133870F8012085318542855385688579858A8557
S11338809B850E94952C9B01AC01C701B6010E9447
S11338909829DF91CF911F910F91FF90EF90DF90C6
S11338A0CF900895DF92EF92FF920F931F93CF93DF
S11338B0DF937C018B01EA01D12CF70161917191B5
S11338C0819191917F01F80121913191419151911F
S11338D08F010E9498296993799389939993D3943A
S11338E0F3E0DF12EACFDF91CF911F910F91FF90A8
S11338F0EF90DF9008953F924F925F926F927F9284
S11339008F929F92AF92BF92CF92DF92EF92FF92EB
S11339100F931F93CF93DF93382E892E5B017A0187
S1133920C12CD12CF7011082118212821382032D33
S1133930182DE501CC0DDD1D83E0982E412C512C72
S11339403201F80161917191819191918F012881E6
S113395039814A815B810E94952C9B01AC01C30192
S1133960B2010E9498292B013C01F7016083718305
S1133970828393839A942C969110E3CFF4E0EF0E14
S1133980F11C84E0C80ED11CECE0CE16D10451F633
S1133990DF91CF911F910F91FF90EF90DF90CF9027
S11339A0BF90AF909F908F907F906F905F904F905B
S11339B03F900895AF92BF92CF92DF92EF92FF9221
S11339C00F931F93CF93DF93EC018B015A01FB01FB
S11339D020853185428553856C817D818E819F81CF
S11339E00E94952C6B017C01F8012481358146816C
S11339F05781688579858A859B850E94952C9B01D2
S1133A00AC01C701B6010E949729F5016083718357
S1133A1082839383F80120813181428153816885B7
S1133A2079858A859B850E94952C6B017C01F80120
S1133A302085318542855385688179818A819B817E
S1133A400E94952C9B01AC01C701B6010E949729E5
S1133A50F5016483758386839783F8012481358116
S1133A6046815781688179818A819B810E94952C46
S1133A706B017C01F80120813181428153816C8189
S1133A807D818E819F810E94952C9B01AC01C70191
S1133A90B6010E949729F501608771878287938711
S1133AA0DF91CF911F910F91FF90EF90DF90CF9016
S1133AB0BF90AF900895CF92DF92EF92FF92CF9391
S1133AC0DF93EC016A017B019A01AB016881798182
S1133AD08A819B810E94952C688379838A839B8346
S1133AE0A70196016C817D818E819F810E94952C16
S1133AF06C837D838E839F83A70196016885798576
S1133B008A859B850E94952C688779878A879B87FD
S1133B10DF91CF91FF90EF90DF90CF900895CF92F7
S1133B20DF92EF92FF921F93CF93DF936A017B01A1
S1133B30EC0110E0A7019601688179818A819B815B
S1133B400E94952C69937993899399931F5F1430FC
S1133B5089F7DF91CF911F91FF90EF90DF90CF9085
S1133B600895CF92DF92EF92FF92CF93DF93EC010F
S1133B70A5DD6B017C019B01AC01688179818A819F
S1133B809B810E947C2A688379838A839B83A70113
S1133B9096016C817D818E819F810E947C2A6C8339
S1133BA07D838E839F83A7019601688579858A85A5
S1133BB09B850E947C2A688779878A879B87DF9107
S1133BC0CF91FF90EF90DF90CF900895CF92DF9246
S1133BD0EF92FF920F931F93CF93DF938C01B5DD88
S1133BE06B017C01E80110E0A701960168817981ED
S1133BF08A819B810E947C2A699379938993999302
S1133C001F5F143089F7DF91CF911F910F91FF90BF
S1133C10EF90DF90CF900895579A08950C94502810
S1133C20C8CCEF92FF920F931F93CF93DF93109220
S1133C300F0510920E056091E1047091E2048091E9
S1133C40E3049091E40400E714E00E94122B20E0C6
S1133C5030E048EC52E40E947C2AF80160837183CE
S1133C60828393836091E5047091E6048091E70474
S1133C709091E804C4E7D4E00E94122B20E030E0E5
S1133C8048EC52E40E947C2A688379838A839B836C
S1133C906091E9047091EA048091EB049091EC0442
S1133CA028E7E22E24E0F22E0E94122B20E030E0DE
S1133CB048EC52E40E947C2AF7016083718382837A
S1133CC093836091ED047091EE048091EF049091E0
S1133CD0F0040E94122B6093640470936504809333
S1133CE06604909367046091F1047091F2048091EA
S1133CF0F3049091F4040E94122B6093680470936F
S1133D00690480936A0490936B046091F504709144
S1133D10F6048091F7049091F8040E94122B6093AA
S1133D206C0470936D0480936E0490936F040E94EE
S1133D30A009F80180819181A281B38180938C04D0
S1133D4090938D04A0938E04B0938F0488819981FD
S1133D50AA81BB818093900490939104A0939204D0
S1133D60B0939304F70180819181A281B381809300
S1133D70940490939504A0939604B093970468E9EF
S1133D8074E0C8010E94460B60E874E084E694E0A5
S1133D900E94460B6091F9047091FA048091FB042F
S1133DA09091FC040E94122B20E836E948E15BE480
S1133DB00E947C2A25E33AEF4EE85CE30E94952CAE
S1133DC0609358057093590580935A0590935B0549
S1133DD06091FD047091FE048091FF0490910005B0
S1133DE00E94122B20E836E948E15BE40E947C2A19
S1133DF025E33AEF4EE85CE30E94952C60935C0562
S1133E0070935D0580935E0590935F051092130196
S1133E10DF91CF911F910F91FF90EF9008954F92F2
S1133E205F926F927F928F929F92AF92BF92CF9246
S1133E30DF92EF92FF920F931F93CF93DF93CDB74F
S1133E40DEB764970FB6F894DEBF0FBECDBF8C010A
S1133E508CE894E033DC2B013C019B01AC010E9413
S1133E60952C9B01AC0161EB7AE186E791E50E9418
S1133E707C2A6D877E878F87988B20E030E040E432
S1133E8050E4C301B2010E94F82C6B017C0120E0D4
S1133E9030E040E850E4C301B2010E94F82C2B0149
S1133EA03C018090940490909504A0909604B09066
S1133EB09704A5019401C501B4010E94952C28E939
S1133EC038E045E05CE30E94952C2AEC3EEF43E1A8
S1133ED056E50E94952CA30192010E947C2A698BCD
S1133EE07A8B8B8B9C8B20E030E040E85FE36D8520
S1133EF07E858F8598890E94982929893A894B89DA
S1133F005C890E9497292B013C0121EF39E445EBA0
S1133F1057ED60918C0470918D0480918E04909182
S1133F208F040E94952CA30192010E94952CA70155
S1133F3096010E947C2A69837A838B839C8321EF78
S1133F4039E445EB57ED60919004709191048091B0
S1133F509204909193040E94952C9B01AC01C3019F
S1133F60B2010E94952CA70196010E947C2A6D83C0
S1133F707E838F83988721EF39E445EB57EDC501A4
S1133F80B4010E94952C2B013C0120E030E040E478
S1133F9050E46D857E858F8598890E94952C20E05C
S1133FA030E040E85FE30E94982929893A894B89E7
S1133FB05C890E9497299B01AC01C301B2010E9454
S1133FC0952CA70196010E947C2A69877A878B87A2
S1133FD09C87B801CE0101960E94460B64960FB6E9
S1133FE0F894DEBF0FBECDBFDF91CF911F910F912B
S1133FF0FF90EF90DF90CF90BF90AF909F908F9005
S11340007F906F905F904F9008959F92AF92BF9270
S1134010CF92DF92EF92FF920F931F93CF93DF9390
S1134020CDB7DEB768970FB6F894DEBF0FBECDBF2D
S11340304AE0942ECE0149965C01CE010D96EFDE46
S1134040BE016F5F7F4F80E894E00BDBFE013D967D
S11340507F0100E814E0F7016191719181919191E0
S11340607F012DEC3CEC4CE45EE30E94952C9B011B
S1134070AC01F80160817181828193810E94982949
S1134080F80161937193819391938F01EA14FB0476
S113409011F7CE0101966C0138E9E32E34E0F32EDA
S11340A000E814E0F80161917191819191918F017F
S11340B0F60121913191419151916F010E9498290A
S11340C020E030E040E05FE30E94952C2DEC3CECD6
S11340D04CE45EE30E94952C9B01AC01F7016081E6
S11340E07181828193810E949829F7016193719370
S11340F0819391937F01F4E00C381F0799F69A9409
S113410009F09BCF68960FB6F894DEBF0FBECDBF03
S1134110DF91CF911F910F91FF90EF90DF90CF909F
S1134120BF90AF909F9008954F925F926F927F924D
S11341308F929F92AF92BF92CF92DF92EF92FF92B3
S11341400F931F93CF93DF93CDB7DEB72C970FB6A2
S1134150F894DEBF0FBECDBF8C012091D204309104
S1134160D3044091D4045091D5046091D604709145
S1134170D7048091D8049091D9040E944D2B20E05B
S113418030EC48EA57E40E947C2A2BED3FE049ECEE
S113419050E40E94952C21ED30EA46EB53E40E9452
S11341A07C2A4B015C010E94442D20E93EE24CEC48
S11341B05EE30E94952C0E94FC296B017C01C501E1
S11341C0B4010E94792A2B013C01C701B6010E9467
S11341D0792A4B015C019B01AC01C301B2010E942D
S11341E07C2A0E9489292B013C0120E030E0A901AE
S11341F0C701B6010E948A2C87FF0AC0A30192015D
S11342006BED7FE089EC90E40E9497292B013C013F
S1134210C301B2010E94792A9B01AC01C501B4011A
S11342200E94952C69837A838B839C83C301B2019A
S11342300E94442D9B01AC01C501B4010E94952C40
S11342406D837E838F839887C701B6010E94442DB6
S113425069877A878B879C872DEC3CEC4CEC5DE37B
S113426060917C0470917D0480917E0490917F0420
S11342700E94982960937C0470937D0480937E044B
S113428090937F049801AE014F5F5F4F60E874E044
S113429088E994E00E94570C2C960FB6F894DEBF80
S11342A00FBECDBFDF91CF911F910F91FF90EF9083
S11342B0DF90CF90BF90AF909F908F907F906F9042
S11342C05F904F900895AF92BF92CF92DF92EF929A
S11342D0FF920F931F93CF93DF93CDB7DEB7E09791
S11342E00FB6F894DEBF0FBECDBF5C012091CA04A7
S11342F03091CB044091CC045091CD046091CE0414
S11343007091CF048091D0049091D1040E944D2BE0
S113431020EC39E940EF5BE40E947C2A20E030EE97
S11343204BEF54E40E9498296B017C01BE016B5D44
S11343307F4F88E994E00E94CD0BBE01675E7F4FFA
S1134340CE0185960E94090D68E575E0CE01499677
S113435088D98E01035F1F4F28E0B701A601CE0163
S113436049960E944513AE014B5D5F4FBE01675EE7
S11343707F4FC8010E94410EBE016F5F7F4FCE0187
S113438085960E94460B9501AE014F5F5F4F60E832
S113439074E088E994E00E94570CE0960FB6F89414
S11343A0DEBF0FBECDBFDF91CF911F910F91FF9064
S11343B0EF90DF90CF90BF90AF9008951F93CF936D
S11343C0DF93CCE1D5E010E06991799189919991DD
S11343D023E333E343ED5FE30E94752A87FD1F5F08
S11343E085E0C433D80781F781E0163021F0DF91EE
S11343F0CF911F91089580E0DF91CF911F9108958F
S11344002F923F924F925F926F927F928F929F92E0
S1134410AF92BF92CF92DF92EF92FF920F931F93CE
S1134420CF93DF93CDB7DEB7CC57D1090FB6F8944D
S1134430DEBF0FBECDBF3C018B01E1965FAF4EAF37
S1134440E19769018CE1E82E85E0F82EB12CF701A3
S113445061917191819191917F0123E333E343ED64
S11344605FE30E94752A87FDB394F4E3EF16F5E049
S1134470FF0669F726E0B21609F463C2F6018081EB
S113448081110DC08091A4049091A504029690938B
S1134490A5048093A4048C32914009F478C28091DD
S11344A01401811106C0F60110821092A504109225
S11344B0A404C0901C05D0901D05E0901E05F0904A
S11344C01F058090200590902105A0902205B090B2
S11344D02305A5019401C701B6010E948A2C1E017F
S11344E0F1E62F0E311C18160CF425C2B7FAB0945D
S11344F0B7F8B094F10180829182A282B382C09015
S11345002405D0902505E0902605F090270580909D
S1134510280590902905A0902A05B0902B05A501A7
S11345209401C701B6010E948A2C18160CF429C202
S1134530B7FAB094B7F8B094F10184829582A68258
S1134540B782C0902C05D0902D05E0902E05F090F8
S11345502F058090300590903105A0903205B090E1
S11345603305A5019401C701B6010E948A2C1816CF
S11345700CF401C2B7FAB094B7F8B094F101808694
S11345809186A286B386C101ECDA809134059091BC
S11345903505A0913605B091370569968CAF9DAF6E
S11345A0AEAFBFAF69978091380590913905A0915E
S11345B03A05B0913B056D968CAF9DAFAEAFBFAFE2
S11345C06D9780913C0590913D05A0913E05B09179
S11345D03F05A1968CAF9DAFAEAFBFAFA197AE0123
S11345E0475B5F4FB101CE018B5A9F4FE3D9CE0198
S11345F0875B9F4FB6DACE01CD96AF969FAF8EAF55
S1134600AF97AC01B801C301D5D9CE01CD96A9DAD3
S1134610BE01635C7F4FCE01875B9F4FFFD86B0168
S11346207C01B301CE018B5A9F4FF8D84B015C013A
S1134630B801C101F3D8E5966CAF7DAF8EAF9FAFE3
S1134640E59720E030E040E85FE3C701B60170D6AB
S11346506B017C0126E636E646E65FE3C501B4015C
S11346600E94952C4B015C0120ED3CEC4CEC5DE38D
S1134670E5966CAD7DAD8EAD9FADE5970E94952C12
S11346809B01AC01C501B40153D69B01AC01C70128
S1134690B6010E94952C6B017C01AE01475E5F4F11
S11346A0B301CE018B5A9F4F85D9AE01435F5F4F53
S11346B0B801C1017FD98E01075E1F4FFE013D96EF
S11346C05F014E01F5E28F0E911CF8016191719129
S11346D0819191918F0126E636E646E65FE30E94DA
S11346E0952C2B013C0120ED3CEC4CEC5DE3F501F9
S11346F060817181828193810E94952C9B01AC0120
S1134700C301B20115D6F50161937193819391931D
S11347105F0108151905C9F6AE014F5C5F4FBE0174
S1134720635C7F4FCE01875B9F4F44D9BE01635FBB
S11347307F4FCE01C19672D8A7019601F9D56B01BE
S11347407C01A801BE01635C7F4FCE01875B9F4F54
S1134750A9D8BE01635F7F4FC80160D82B013C011B
S1134760A7019601C701B6010E94952C4B015C017B
S1134770A3019201C301B2010E94952C9B01AC01DB
S1134780C501B401D5D50E944E2D4B015C0120E03A
S113479030E0A901C701B6010E948A2CA701960145
S11347A018160CF0F8C0C501B401C2D56B017C0128
S11347B0A50194010E94952C4B015C01BE01635C30
S11347C07F4FCE01875B9F4F29D820E030E040E83F
S11347D05FE3AED59B01AC01C501B4010E94952CE9
S11347E00E944E2D9B01AC01A3D59B01AC0160E05E
S11347F070E080E89FE380D6ED966CAF7DAF8EAF1E
S11348009FAFED97CE01C1961C01FE013196E39650
S1134810FFAFEEAFE397E9964CAE5DAE6EAE7FAE02
S1134820E997F10121913191419151911F01F801D1
S113483041905190619071908F01C701B6010E941F
S1134840952C4B015C01E9962CAD3DAD4EAD5FADB1
S1134850E997C301B2010E94952C9B01AC01C501EB
S1134860B40166D5E396EEADFFADE3976193719322
S113487081939193E396FFAFEEAFE397AF968EAD3E
S11348809FADAF972816390661F6B101CE01875B5B
S11348909F4F0E940E1C20E030E040E85FE348D5C3
S11348A09B01AC01C701B6010E94952C09811A81B4
S11348B02B813C81E196EEADFFADE197008311833E
S11348C0228333830D811E812F81388504831583D0
S11348D02683378309851A852B853C8500871187B4
S11348E0228733876487758786879787ED964CADD3
S11348F05DAD6EAD7FADED97CF0111D981E08093B1
S11349001401C458DF4F0FB6F894DEBF0FBECDBFFD
S1134910DF91CF911F910F91FF90EF90DF90CF9097
S1134920BF90AF909F908F907F906F905F904F90CB
S11349303F902F900895F101C082D182E282F382E8
S1134940DECDE196EEADFFADE197108211821282C9
S1134950138214821582168217821086118612869B
S1134960138680E090E0A0E8BFE384879587A6875C
S1134970B78780E0C4CFF101C086D186E286F38692
S113498002CEF101C482D582E682F782DACD81E0DB
S1134990F601808384CDC501B401C9D4E9966CAF16
S11349A07DAF8EAF9FAFE997A5019401BED76B0190
S11349B07C01BE01635C7F4FCE01875B9F4F0E94E9
S11349C00E1C20E030E040E85FE3B2D49B01AC0170
S11349D0C701B601AAD70E944E2D9B01AC01A8D4F1
S11349E09B01AC0160E070E080E89FE385D5ED9623
S11349F06CAF7DAF8EAF9FAFED97FE01F1961F01B7
S1134A00CE010196E3969FAF8EAFE397F1016191DA
S1134A107191819191911F01F80181909190A190E0
S1134A20B1908F01A301920180D76B017C01A50194
S1134A309401E9966CAD7DAD8EAD9FADE99775D7C8
S1134A409B01AC01C701B60173D4E396EEADFFAD93
S1134A50E3976193719381939193E396FFAFEEAFE4
S1134A60E397AF968EAD9FADAF972816390671F6D2
S1134A70B101CE01875B9F4F0E940E1C20E030E005
S1134A8040E85FE355D4A30192014FD70FCF2F9293
S1134A903F924F925F926F927F928F929F92AF92CA
S1134AA0BF92CF92DF92EF92FF920F931F93CF9317
S1134AB0DF93CDB7DEB7C05DD1090FB6F894DEBF82
S1134AC00FBECDBFC353DF4F8883CD5CD040C253EC
S1134AD0DF4F9883CE5CD040C153DF4F6883CF5CF7
S1134AE0D040C053DF4F7883C05DD0407C0102EBDF
S1134AF014E09E0123593F4F6901AE0143585F4FB3
S1134B001A01D7018D909D90AD90BD907D01F80163
S1134B1041905190619071908F01A3019201C50160
S1134B20B40105D420E030E040E05FE3FED6D101DB
S1134B306D937D938D939D931D01A3019201C501F6
S1134B40B401F6D320E030E040E05FE3EED6F601B6
S1134B5061937193819391936F01F4E0023C1F0779
S1134B6081F69E0127563F4FCE018B559F4F4DE74F
S1134B7050E04C0F5D1F445F5F4FDE01A359BF4FF0
S1134B80FE01E358FF4F7C01B901CD010191119160
S1134B9021913191DB010D931D932D933D93BD0123
S1134BA0DC010D911D912D913D91CD01D7010D9306
S1134BB01D932D933D937D01E417F50739F7ED9689
S1134BC02CAD3DAD4EAD5FADED97C954DF4F28839D
S1134BD039834A835B83C75BD0401DA21EA21FA2F8
S1134BE018A6C355DF4F88809980AA80BB80CD5A10
S1134BF0D04020E030E040E050ECC501B40195D64F
S1134C0069A77AA78BA79CA7C755DF4FC880D9800F
S1134C10EA80FB80C95AD040A7019601C701B601BA
S1134C2087D36DA77EA78FA798ABA5019401C50173
S1134C30B4017ED369AB7AAB8BAB9CAB1DAA1EAA25
S1134C401FAA18AEAE014B555F4FFA0181919191A5
S1134C50A191B191CB53DF4FF983E883C55CD04078
S1134C60CF53DF4F88839983AA83BB83C15CD04031
S1134C7020E030E040E050ECBC01CD0156D669AFF5
S1134C807AAF8BAF9CAF20E030E040E050ECC7013E
S1134C90B6014BD621966CAF7DAF8EAF9FAF2197F7
S1134CA0CF53DF4F288139814A815B81C15CD04079
S1134CB0CA01B9013DD325966CAF7DAF8EAF9FAFCE
S1134CC0259729961CAE1DAE1EAE1FAE2997C9545A
S1134CD0DF4F288139814A815B81C75BD040CA019B
S1134CE0B90126D32B013C0169837A838B839C838E
S1134CF01D821E821F82188619861A861B861C86B0
S1134D001D861E861F86188A698B7A8B8B8B9C8BDB
S1134D101D8A1E8A1F8A188E198E1A8E1B8E1C8E4F
S1134D201D8E1E8E1F8E18A269A37AA38BA39CA32B
S1134D309E012F5F3F4FC554DF4F39832883CB5BE0
S1134D40D040AE014B5D5F4FC354DF4F598348835E
S1134D50CD5BD040CE01875B9F4FC154DF4F998319
S1134D608883CF5BD040CB53DF4FA881B981C55C2A
S1134D70D040C553DF4FB983A883CB5CD040CF5319
S1134D80DF4F688179818A819B81C15CD04023E0B7
S1134D90222E812C912C5401022DC953DF4F4882BD
S1134DA059826A827B82C75CD0409B01AC01C0D22D
S1134DB02B013C01CB53DF4F28813981C55CD040A6
S1134DC0CD54DF4F39832883C35BD040C354DF4FB6
S1134DD048815981CD5BD0404C5F5F4FCB54DF4F4E
S1134DE059834883C55BD040C554DF4F888199817E
S1134DF0CB5BD0400496CF54DF4F99838883C15B4B
S1134E00D040C154DF4F28803980CF5BD040CF538E
S1134E10DF4FC880D980EA80FB80C15CD04013E0BA
S1134E20C953DF4F688179818A819B81C75CD040F7
S1134E30A50194017CD24B015C01A7019601C30139
S1134E40B20173D5C954DF4F288139814A815B810E
S1134E50C75BD04051D39B01AC01C501B40168D2FA
S1134E60D1016D937D938D939C9313971150BCE066
S1134E702B0E311C112389F1CF54DF4FE881F981C6
S1134E80C15BD0406191719181919191CF54DF4F79
S1134E90F983E883C15BD040CB54DF4FA881B9814B
S1134EA0C55BD0402D913D914D915D91CB54DF4F29
S1134EB0B983A883C55BD040CD54DF4FE881F98125
S1134EC0C35BD040C190D190E190F190CD54DF4FBD
S1134ED0F983E883C35BD040ADCF0150C554DF4FA5
S1134EE0E881F981CB5BD0403C96C554DF4FF98310
S1134EF0E883CB5BD040C354DF4F28813981CD5B3D
S1134F00D040245F3F4FC354DF4F39832883CD5BA8
S1134F10D040C154DF4F48815981CF5BD0404C5FB2
S1134F205F4FC154DF4F59834883CF5BD040002388
S1134F3039F1C553DF4FA881B981CB5CD0406D9165
S1134F407D918D919D91C553DF4FB983A883CB5C2F
S1134F50D0402081318142815381C953DF4F28835E
S1134F6039834A835B83C75CD040C354DF4FE881F5
S1134F70F981CD5BD04080809180A280B38015CF31
S1134F80AE0143575F4FBE01675B7F4FCE0187562B
S1134F909F4F0E947B1C8E0103571F4F96EAC92E18
S1134FA094E0D92EC153DF4FE880CF5CD040C0538A
S1134FB0DF4FF880C05DD04018019CE0290E311C01
S1134FC0D8016D917D918D919D918D01F601419056
S1134FD05190619071906F0128E031E244E05DE30B
S1134FE0A4D44B015C0120EF3DEB47E75FE3C30131
S1134FF0B2019BD49B01AC01C501B40199D1D70185
S11350006D937D938D939D937D0102151305C1F6D8
S113501062EB74E0C353DF4F8881CD5CD040C25350
S1135020DF4F9881CE5CD0400E94501B66EA74E04A
S1135030C153DF4F8881CF5CD040C053DF4F98818C
S1135040C05DD0400E94311BC053DF4F0FB6F894AF
S1135050DEBF0FBECDBFDF91CF911F910F91FF90A7
S1135060EF90DF90CF90BF90AF909F908F907F9004
S11350706F905F904F903F902F90089517BA86E0FD
S113508087BB87B3816387BB88B3806388BBC098C1
S11350908FE58DB908958FB9779BFECF8FB10895B1
S11350A07F928F929F92AF92BF92CF92DF92EF92B4
S11350B0FF920F931F93CF93DF93CDB7DEB72C9757
S11350C00FB6F894DEBF0FBECDBFC09AC5988FEC63
S11350D097E00197F1F700C000008FEFDCDFEFEC01
S11350E0F7E03197F1F700C000008FEF8BBBD3DFFF
S11350F0182F8FEC97E00197F1F700C000008FEFB5
S1135100CADF782EEFECF7E03197F1F700C000002A
S11351108FEFC1DF882E8FEC97E00197F1F700C085
S113512000008FEFB8DF082FEFECF7E03197F1F7CD
S113513000C000008FEFAFDFA82E8FEC97E001973F
S1135140F1F700C000008FEFA6DF982EEFECF7E038
S11351503197F1F700C000008FEF9DDFC82E8FEC70
S113516097E00197F1F700C000008FEF94DFB82EAD
S1135170EFECF7E03197F1F700C000008FEF8BDF21
S1135180E82E8FEC97E00197F1F700C000008FEF55
S113519082DFD82EEFECF7E03197F1F700C0000082
S11351A08FEF79DFF82E8FEC97E00197F1F700C0CD
S11351B000008FEF70DFEFECF7E03197F1F700C0FC
S11351C00000672D70E0762F6627610F711D7A83CA
S11351D0698310E0102F0027080D111D1C830B8319
S11351E0A92DB0E0BA2FAA27AA0DB11DBE83AD83A5
S11351F0EB2DF0E0FE2FEE27EC0DF11DF887EF8389
S11352004D2D50E0542F44274E0D511D5A87498788
S1135210282F30E0322F22272F0D311D3C872B877A
S11352207E01F3E0EF0EF11C00E010E004C0F70192
S1135230619171917F0180E090E0F2D123E333E347
S113524043E55BE372D3F801EE0FFF1FEE0FFF1F80
S1135250E351FB4F67A770AB81AB92AB0F5F1F4F5E
S11352600630110521F781E490E04FD000E010E012
S1135270F801EE0FFF1FEE0FFF1FE351FB4F67A571
S113528070A981A992A920E030E04FE753E44DD3FF
S113529023E333E343E550E42FD196D1862F90E006
S11352A034D00F5F1F4F0630110511F7C59AFFEF79
S11352B029E688E1F15020408040E1F700C0000079
S11352C02C960FB6F894DEBF0FBECDBFDF91CF9101
S11352D01F910F91FF90EF90DF90CF90BF90AF9010
S11352E09F908F907F9008951BB81AB8E5E9F0E07D
S11352F01082599A8AB188618AB980818E608083CC
S113530087E689B91092900008955D9BFECF8CB911
S113531008959F939F77FFD10F9000203AF49058FF
S1135320A2EA2AED3FE049E450E413D0A8C2505861
S1135330BB27AA270ED0A3C26CD230F071D220F0C2
S113534031F49F3F11F41EF42BC20EF4E095E7FBF9
S113535021C2E92FB6D280F3BA1762077307840714
S1135360950718F071F49EF5CEC20EF4E0950B2E5D
S1135370BA2FA02D0B01B90190010C01CA01A001A3
S11353801124FF27591B99F0593F50F4503E68F1FE
S11353901A16F040A22F232F342F4427585FF3CF3F
S11353A0469537952795A795F0405395C9F77EF410
S11353B01F16BA0B620B730B840BBAF09150A1F059
S11353C0FF0FBB1F661F771F881FC2F70EC0BA0FDF
S11353D0621F731F841F48F4879577956795B79567
S11353E0F7959E3F08F0B3CF9395880F08F099275F
S11353F0EE0F9795879508959F939F77EEE38937EE
S11354009E0720F4ECE8F0E0F3D109C084D1905871
S1135410A2EA2AED3FE049EC5FE39BDF30D20F9034
S113542007FC90580895F5D158F080E891E009F40C
S11354309EEFF6D128F040E851E059F45EEF09C040
S1135440AFC161C2E92FE0783CD268F3092E052A86
S1135450C1F3261737074807590738F00E2E07F807
S1135460E02569F0E025E0640AC0EF6307F80094E2
S113547007FADB01B9019D01DC01CA01AD01EF931B
S11354804AD0FDD10AD05F91552331F02BED3FE096
S113549049E450FD49EC4CCF0895DF93DD27B92F43
S11354A0BF7740E85FE31616170648075B0710F45A
S11354B0D92F34D29F938F937F936F932DD3E0EAA8
S11354C0F0E071D1DCD12F913F914F915F9139D2AE
S11354D0DD2349F09058A2EA2AED3FE049EC5FE36E
S11354E0D0785D2736DFDF91CAC130D108F481E07E
S11354F008959ED1E395D4C10CD0C1C191D140F09F
S113550088D130F021F45F3F19F044C15111FCC13E
S113551047C1D7D198F39923C9F35523B1F3951B08
S1135520550BBB27AA2762177307840738F09F5FC0
S11355305F4F220F331F441FAA1FA9F333D00E2E2F
S11355403AF0E0E830D091505040E695001CCAF79C
S113555029D0FE2F27D0660F771F881FBB1F261761
S113556037074807AB07B0E809F0BB0B802DBF0134
S1135570FF2793585F4F2AF09E3F510568F00AC1F8
S1135580C3C15F3FECF3983EDCF38695779567954E
S1135590B795F7959F5FC9F7880F911D96958795E5
S11355A097F90895E1E0660F771F881FBB1F621704
S11355B073078407BA0720F0621B730B840BBA0BC2
S11355C0EE1F88F7E095089584D188F09F5790F0F6
S11355D0B92F9927B751A0F0D1F0660F771F881F14
S11355E0991F1AF0BA95C9F712C0B13081F08BD166
S11355F0B1E0089588C1672F782F8827B85F39F004
S1135600B93FCCF3869577956795B395D9F73EF472
S113561090958095709561957F4F8F4F9F4F08951A
S1135620E89409C097FB3EF4909580957095619538
S11356307F4F8F4F9F4F9923A9F0F92F96E9BB27EE
S11356409395F695879577956795B795F111F8CF6A
S1135650FAF4BB0F11F460FF1BC06F5F7F4F8F4FD5
S11356609F4F16C0882311F096E911C0772321F0CB
S11356709EE8872F762F05C0662371F096E8862F63
S113568070E060E02AF09A95660F771F881FDAF7BA
S1135690880F9695879597F90895E894F92F96EBD6
S11356A0FF2381F0121613061406440B9395F69506
S11356B087957795679557954040FF23B9F71BC0A9
S11356C099270895882351F49850D2F7872B762F81
S11356D0652F542F432F322F20E0B1F312161306F7
S11356E01406440B88233AF09A95440F551F661FFD
S11356F0771F881FCAF755234AF4440F551F11F426
S113570060FF04C06F5F7F4F8F4F9F4F880F969548
S1135710879597F90895DF93CF931F930F938B0188
S1135720EC01EDECF0E03FD0AAD09801AE018B0182
S1135730EC0160E070E080E89FE3F9DDAFD198010F
S1135740AE010F911F91CF91DF91FBC0990F00081B
S1135750550FAA0BE0E8FEEF16161706E807F9073F
S1135760C0F012161306E407F50798F0621B730BDA
S1135770840B950B39F40A2661F0232B242B252B5B
S113578021F408950A2609F4A140A6958FEF811DFE
S1135790811D089597F99F6780E870E060E008959F
S11357A09FEF80EC0895DF93CF931F930F93FF92A5
S11357B0EF92DF927B018C01689405C0DA2EEF0131
S11357C0C0D0FE01E894A59125913591459155915C
S11357D0AEF3EF01BEDDFE019701A801DA9479F77B
S11357E0DF90EF90FF900F911F91CF91DF9108957B
S11357F09F938F937F936F93FF93EF939B01AC01E0
S113580094D0EF91FF91CFDF2F913F914F915F9112
S11358108CC000240A941616170618060906089563
S113582000240A9412161306140605060895B8CF28
S113583050D0E8F3E894E0E0BB279F57F0F02AED5E
S11358403FE049EC06C0EE0FBB0F661F771F881FB1
S113585028F0B23A62077307840728F0B25A620B41
S1135860730B840BE3959A9572F7803830F49A950C
S1135870BB0F661F771F881FD2F7904883C1092E7C
S11358800394000C11F4882352F0BB0F40F4BF2B97
S113589011F460FF04C06F5F7F4F8F4F9F4F0895D7
S11358A0EF93E0FF06C0A2EA2AED3FE049EC5FEB8C
S11358B050DDE5DF0F90039401FC9058E5EFF0E034
S11358C097CF57FD9058440F551F59F05F3F71F023
S11358D04795880F97FB991F61F09F3F79F0879553
S11358E00895121613061406551FF2CF4695F1DFDC
S11358F008C0161617061806991FF1CF869571056C
S1135900610508940895E894BB2766277727CB019F
S113591097F908951BDF08F48FEF08959B01AC01FC
S113592060E070E080E89FE3E7CD0BD0A8CF71DFA3
S113593028F076DF18F0952309F02CCF31CF11240D
S1135940E3CFBFDFA0F3959FD1F3950F50E0551F30
S1135950629FF001729FBB27F00DB11D639FAA27C0
S1135960F00DB11DAA1F649F6627B00DA11D661F0F
S1135970829F2227B00DA11D621F739FB00DA11D30
S1135980621F839FA00D611D221F749F3327A00DEA
S1135990611D231F849F600D211D822F762F6A2F86
S11359A011249F5750408AF0E1F088234AF0EE0F0B
S11359B0FF1FBB1F661F771F881F91505040A9F718
S11359C09E3F510570F0E6CE9FCF5F3FECF3983ECB
S11359D0DCF3869577956795B795F795E7959F5F7F
S11359E0C1F7FE2B880F911D9695879597F9089519
S11359F0FA01EE0FFF1F30962105310599F161156B
S1135A00710561F48038BFE39B0749F168949038CD
S1135A10810561F08038BFEF9B0741F0992342F57F
S1135A20FF3FE1053105210511F1E8940894E7955C
S1135A30D901AA2329F4AB2FBE2FF85FD0F310C0ED
S1135A40FF5F70F4A695E0F7F73950F019F0FF3ACC
S1135A5038F49F779F930CD00F9007FC90580895CB
S1135A603EF09ECE60E070E080E89FE308954FE74B
S1135A709F775F934F933F932F93D2D02F913F9172
S1135A804F915F9152DF50C09F93D2DE0F9007FC7D
S1135A90EE5F06CF11F40EF483CE72C01ADFD0F39A
S1135AA09923D9F3CEF39F57550B87FF77D0002462
S1135AB0A0E640EA900180585695979528F4805CBA
S1135AC0660F771F881F20F026173707480730F422
S1135AD0621B730B840B202931294A2BA69517943A
S1135AE00794202531254A2758F7660F771F881F0A
S1135AF020F026173707480730F4620B730B840B2A
S1135B00200D311D411DA09581F7B901842F9158B5
S1135B10880F9695879508959B01AC0106CF19F4DB
S1135B200EF038CEF0CE3CCED4DEC8F39638C0F7B3
S1135B3007F80F92E8942BE33AEA48EB5FE703DFB8
S1135B400F920F920F924DB75EB70F92A9D0E3E177
S1135B50F1E029DE4F915F91EF91FF91E595EE1F02
S1135B60FF1F49F0FE57E0684427EE0F441FFA95E3
S1135B70E1F74195550B1BD00F9007FECFCE08954A
S1135B809F3F31F0915020F4879577956795B795AD
S1135B90880F911D9695879597F9089591505040D7
S1135BA0660F771F881FD2F70895F4CDE9CF91DEF1
S1135BB0E8F39923D9F3940F511DBBF3915050404E
S1135BC094F059F0882332F0660F771F881F9150A4
S1135BD05040C1F79E3F510544F7880F911D96959B
S1135BE0879597F908955F3FACF0983E9CF0BB27EA
S1135BF0869577956795B79508F4B1609395C1F745
S1135C00BB0F58F711F460FFE8CF6F5F7F4F8F4FE2
S1135C109F4FE3CF79CE0EF0B3CFC2CD6894BACD07
S1135C2058DEC8F39923D1F3C6F3DF93CF931F93C0
S1135C300F93FF92C92FDD2788232AF02197660F3F
S1135C40771F881FDAF720E030E040E85FEB9FE33E
S1135C50883920F0803E30F021968F7769DBEBE3C2
S1135C60F1E003C065DBE8E6F1E09DDD8B01BE01F8
S1135C70EC01FB2E6F5771097595771F880B990BF3
S1135C80D1DC28E132E741E35FE35BDEAF2D98012D
S1135C90AE01FF900F911F91CF91DF915ADBEFCDB1
S1135CA0FA01DC01AA0FBB1F9B01AC01BF5728F40A
S1135CB022273327442750781FC0B75188F4AB2FCD
S1135CC00024469537952795011CA395D2F300200F
S1135CD069F0220F331F441FB395DAF30DD027CB9D
S1135CE061307105A0E88A07B94630F49B01AC0124
